:020000040000fa
:08000000e4050400000000000b
:020000040000fa
:0200000401f009
:04000c00f9ff0000f8
:020000040000fa
:0200000401f009
:040010005fff00008e
:020000040000fa
:10000800be040000240400002404000024040000ae
:1000180024040000be040000be040000be0400006a
:10002800be040000be040000be0400002a04000054
:10003800be040000be040000be040000be040000b0
:10004800be040000be040000be040000540400000a
:10005800a4040000be040000be040000be040000aa
:10006800be040000be040000be040000be04000080
:10007800be040000be040000be040000be04000070
:10008800be040000be040000be040000be04000060
:10009800be040000be040000be040000be04000050
:1000a800be040000be040000be040000be04000040
:1000b800be040000be040000be040000be04000030
:1000c800be040000be040000be040000be04000020
:1000d800be040000be040000be040000be04000010
:1000e800be040000be040000be040000be04000000
:1000f800be040000be040000be040000be040000f0
:10010800be040000be040000be040000be040000df
:10011800be040000be040000be040000be040000cf
:10012800be040000be040000be040000be040000bf
:10013800be040000be040000be040000be040000af
:10014800be040000be040000be040000be0400009f
:10015800be040000be040000be040000be0400008f
:10016800be040000be040000be040000be0400007f
:10017800be040000be040000be040000be0400006f
:10018800be040000be040000be040000be0400005f
:10019800be040000be040000be040000be0400004f
:1001a800be040000be040000be040000be0400003f
:1001b800be040000be040000be040000be0400002f
:1001c800be040000be040000be040000be0400001f
:1001d800be040000be040000be040000be0400000f
:1001e800be040000be040000be040000be040000ff
:0801f800be040000be0400007b
:020000040000fa
:10020800be040000240400002404000024040000ac
:1002180024040000be040000be040000be04000068
:10022800be040000be040000be0400002a04000052
:10023800be040000be040000be040000be040000ae
:10024800be040000be040000be0400005404000008
:10025800a4040000be040000be040000be040000a8
:10026800be040000be040000be040000be0400007e
:10027800be040000be040000be040000be0400006e
:10028800be040000be040000be040000be0400005e
:10029800be040000be040000be040000be0400004e
:1002a800be040000be040000be040000be0400003e
:1002b800be040000be040000be040000be0400002e
:1002c800be040000be040000be040000be0400001e
:1002d800be040000be040000be040000be0400000e
:1002e800be040000be040000be040000be040000fe
:1002f800be040000be040000be040000be040000ee
:10030800be040000be040000be040000be040000dd
:10031800be040000be040000be040000be040000cd
:10032800be040000be040000be040000be040000bd
:10033800be040000be040000be040000be040000ad
:10034800be040000be040000be040000be0400009d
:10035800be040000be040000be040000be0400008d
:10036800be040000be040000be040000be0400007d
:10037800be040000be040000be040000be0400006d
:10038800be040000be040000be040000be0400005d
:10039800be040000be040000be040000be0400004d
:1003a800be040000be040000be040000be0400003d
:1003b800be040000be040000be040000be0400002d
:1003c800be040000be040000be040000be0400001d
:1003d800be040000be040000be040000be0400000d
:1003e800be040000be040000be040000be040000fd
:0803f800be040000be04000079
:020000040000fa
:100800000000000078100000546b0000007c000025
:1008100000000000a6640000000000002c0f000093
:100820008c0f00002e0f0000065500003055000010
:10083000485500002c0f00000a000000ee0f0000d9
:10084000d64f000000000000000480000070880007
:100850000000fe0081e0a8008460a900722eec0078
:1008600000a0fe00500880000a21ef006e2eb400a8
:100870000000eb0070aeb400724ee20008003a00d7
:100880009228220081738000707380006e2eef002a
:10089000702eef00110009004288d80060738800b4
:1008a0000080fe000040060000a0fe000e87e80069
:1008b0008560a900686ea8001a8ebf00200eb500e2
:1008c0001b003b002222a900301180006f00e100d4
:1008d000bc003200684eaf00020037007300e10038
:1008e0000e003200002f7800c04f2500002f780046
:1008f000d9030700684eaf000800370080002000d1
:10090000200ee30005003300682eaf00030037001f
:100910003001200020118800682ea8002202af00bc
:10092000e3ff3700620757000080fe00004006002a
:100930002302ae00feff370030118000c007200008
:1009400020118800f5ff370000a0fe006207470075
:100950008580a9002322af00f2ff3700080ee200d5
:10096000f0ff3200a04e2500002f7800d8030700ca
:100970002e00780020118800eaff370083e0ae00e7
:10098000b1ff370000a0fe00000780008000d0000b
:10099000f10fb20040e82000010140001200780091
:1009a000004001003073800001c02f000100600092
:1009b000640ee30001003a00000006002402070074
:1009c0003073800001c02f00010060002073880098
:1009d0000000eb00150007000304200092d8ba00c5
:1009e0003218ba008301e900fcff3a000402e90072
:1009f000f9ff3a00000006009e0207002322af0024
:100a0000fdff37003201200022118800682ea80067
:100a1000686ea90062952000686eaf00fcff370089
:100a20000201e900fcff3a0000000600003b8800dc
:100a30000080200001c0200022738000840020007c
:100a40000209bb0000000600ebff070020042400a1
:100a5000f6ff07004902070010002400f3ff07001b
:100a60000304200031c9bb003019bb008301e90039
:100a7000fcff3a00410207000402e900f8ff3a00d7
:100a80000000eb00e9ff07000304200092c2ba0057
:100a9000312ce1000a003a00b202ba003028e1002d
:100aa00007003a008301e900f8ff3a000402e90078
:100ab000f5ff3a00680ea90064aeef0000000600e2
:100ac0000000fe0000000000c76c00006974000018
:100ad00065720000616c00002e00780080007800d4
:100ae0004400dd00cc08de000102b300002f7800d6
:100af000012f7800a901070000f0220081072000e3
:100b0000002f7800012f7800a401070000000600e4
:100b1000644d0000a23e000061000000ae057800b8
:100b2000000006008a4d0000a26100003e000000a7
:100b30000b2f780000000600944d0000846900002f
:100b4000646c00006500000069cea900000006008a
:100b50009e4d000084620000757300007900000063
:100b600069cea80000000600aa4d0000846c0000b9
:100b70006f610000640000006c8ebf00002f7800e1
:100b800000000600b64d0000856500006d70000095
:100b900074790000850b0700950b07000000060024
:100ba000c44d000084770000617200006d000000f9
:100bb000a7010700a50b0700a0002000002f780068
:100bc000110e07000000fe004427ef00eff22000a6
:100bd00020a0ef000000eb00000778000c000900e7
:100be000002f78000000eb002ee0200001802400a0
:100bf000001f78000170e100fdff3a00cef82000f0
:100c000064aeef00682eef0040e8200001042000f1
:100c1000e24b2000021878008100e900fdff3a0055
:100c200070a7ef0072a7ef0074a7ef00660307003c
:100c3000420307006d03070040030700103a8000dd
:100c4000c880de007100b2006180500003003200f5
:100c5000638050000100320004003700c001200012
:100c6000303a880042a7ae00feff37007167a90046
:100c700040bf2600100888000000280020088800d7
:100c800071a7a90000012a00900888009460a800bc
:100c90002ca3ef002074200061c4b30072c5b30020
:100ca000014878000248780042c7a900b00020003f
:100cb0002035880030c0b300cae6b70070a7a9008d
:100cc00023e2a80021e2a8002062a800a0032000df
:100cd000401188002342a8009560a8009580a800d4
:100ce00080c02400002f780040f02000002f780002
:100cf000e0002000002f780044090700230b0700c4
:100d0000ff0107002e007800f1ff2f000100e10035
:100d1000a0ff3200360b0700a0002000002f780053
:100d2000b90d0700004eaf00930307004f0000000d
:100d3000008eaf00900307004d000000006eaf0072
:100d40008d030700410000004027af008a03070021
:100d5000420000004007af0087030700500000007a
:100d60004087af00840307005700000040c7af0072
:100d7000810307005300000040e7af007e03070037
:100d800045000000002eef004027ef00d8060700c6
:100d900017200000466c00006173000068460000e8
:100da0006f7200007468000020500000494300008a
:100db00033330000203500002e3000000d0a000003
:100dc000be06070010012000002f78007d020700fa
:100dd0001a0007002e00e00012003200c4060700cf
:100de0000345000053430000b406070000802000c4
:100df000002f7800840d07007f0207002e00e0001e
:100e00000600320075020700b0012000002f7800b4
:100e1000f90607001e00e00002003200070007008c
:100e200033030700580b3700d24d000087740000d1
:100e3000757200006e6b0000657900000005070008
:100e4000740e0000164f00008570000061750000f0
:100e5000736500000060fe0000002c00680eb60004
:100e600004003a00c0f220000a0fe30001003a003b
:100e70000140fe00507880003eb89f002fb89f00d0
:100e80004db89f0050b097000700fc0020a0ef0075
:100e900050788800c0be9700a0bf970080b0970030
:100ea0000101880030bf970000000600244f0000b9
:100eb000a3630000776400000060fe0000000600ed
:100ec000584f0000846900006e740000210000008b
:100ed00040e82000ae0078008100d0000100400012
:100ee000018024002e017800810051000108780063
:100ef00000000600624f0000a36900007674000045
:100f000083e0a900000006007c4f0000a4610000ff
:100f1000697600007400000083e0a800000006006d
:100f2000864f0000b25b0000690000008d1f780052
:100f30003600f8006207470000000600924f0000ec
:100f4000b26900005d000000620757003600f9003a
:100f5000cf06780000000600a04f0000b264000039
:100f6000690000004200f80000ceb3004260b70004
:100f700000000600ae4f0000b265000069000000ee
:100f80004200f90000000600bc4f0000886f00001e
:100f90007065000072610000746f00007200000054
:100fa000b40d020000000000d64f00002c0f00001e
:100fb00000600000608a0000c64f000086720000da
:100fc000636100006c6c00002c0000001e8fd100db
:100fd00070002000002f780070000700000006005d
:100fe000de4f00008772000065740000757200001b
:100ff0006e2c0000840d070060002000002f780098
:101000006600070000000600f24f00008772000033
:101010006574000066690000652c00000000240073
:10102000002f780060002000002f78005b00070090
:10103000000006000650000084620000726100009b
:101040002c0000001e8fd100fd02070000032000cd
:10105000002f78005d030700500007000000060025
:101060001c5000008361000073300000f402070090
:101070009e1f780080002000002f78009c0607004b
:10108000230307004f2f780070002000002f780006
:1010900048030700d0002000002f78006e010700f1
:1010a0004a0307000000060032500000856200007d
:1010b000636c0000722c0000ecff0700900a200017
:1010c000002f780035000700000006005650000091
:1010d0008562000073650000742c0000e3ff0700c8
:1010e000800a2000002f78002c0007000000060076
:1010f000685000008562000074730000742c0000ca
:10110000daff0700b00a2000002f78002300070054
:10111000000006007a500000856200007473000031
:10112000632c0000d1ff0700f00a2000002f780098
:101130001a000700000006008c50000085620000c5
:1011400074730000732c0000c8ff0700e00a200041
:10115000002f780011000700000006009e500000dc
:101160008363000066210000b5020700ae0178002d
:101170003f00070000000600b0500000836300003d
:1011800066400000de000700032f78000000060024
:10119000be50000083610000732c00002e00780018
:1011a0000a00e1000e003a008a07b1000c003a0084
:1011b0009e007800e20220000208e10008003a00e8
:1011c00002f022000c10e10005003a00620757000f
:1011d000ef0b07000c0020000a002000070037007a
:1011e00080017800000578001e067800a40a070038
:1011f0001f000700bb040700c40c07000000060026
:10120000826900002c0000009d0a0700a80007006a
:10121000b4040700bd0c070000000600ca5000001f
:1012200083630000662c0000950a0700d0020700c7
:101230001e8fe90065ff0700000006001051000046
:1012400086690000666c000075730000680000008d
:10125000680eaf00fcfd3700000006001d0007000f
:101260008001eb000900070001487800000006003b
:101270002e007800010037008001eb001500070008
:101280000200070001087800000006000180240029
:101290000100500030738800831f7800c1fd0700f3
:1012a000cf01780030738000f13f20000101600021
:1012b0004110de0001c0200000804000034878009b
:1012c0000180200001004100ae007800680ea800f7
:1012d0000000060001c027000100e1000100390004
:1012e000000006008060a800104fba000000060051
:1012f0001b0007000208e100fbff3a00f13f20005d
:10130000008060000180200000804000104f7800c5
:10131000000006008001eb0090c1ba00100fba0077
:10132000000006000e0007000208e100f9ff3a0085
:10133000f13f200000806000000178000180200063
:1013400080804000110f78004110de0001c02000b5
:10135000008040008001eb00904178000000060012
:1013600001802400010050002173800002c02f0082
:101370000001610000000600013b88000500fc0040
:1013800053052000333b8800a30a2000333b88002c
:1013900061e7a800000000000000000061e7af0066
:1013a000feff3700000006001e00780001802400c8
:1013b000010050000140200001004000c000ba00c0
:1013c0008100e800fdff32008100e900010f780094
:1013d0000000060027000700150007000000370086
:1013e00085fd07001e0078000180240001005000e8
:1013f00002202000b000ba008100e80003003a009b
:101400000080e9000e87e900040037000201e900ce
:10141000f8ff3a00060007002e0078003100240093
:10142000013b88002e08bb00d4ff07000000060027
:1014300020042400003b88001e0078000180240066
:10144000010050000008bb00ccff37002051000015
:10145000836600006c2b0000692ea90000000600c6
:1014600028520000836600006c2d0000692ea80041
:1014700000000600692eae00000006008060a80093
:101480003252000083750000312b0000684ea90025
:10149000000006004252000083750000312d00005c
:1014a000684ea800000006004c5200008121000098
:1014b0002e007800018024000100e10002003100cc
:1014c0002e087800000006006bff3700565200001f
:1014d00082630000210000002e00780001802400bb
:1014e0000100e100030031001e4878002e00780062
:1014f0000000060059ff37006852000081400000dc
:101500001e007800018024000100e100020031008b
:10151000100f78000000060082ff37007e520000a6
:1015200082630000400000001e007800000feb0006
:10153000018024000100e10002003100104f78001a
:10154000000006006aff370090520000846d000022
:1015500073650000740000002e007800ae00780073
:101560001088700000000600a6520000846d000084
:10157000636c0000720000002e007800ae80ea006c
:101580001088600000000600b6520000846d000064
:1015900074730000740000002e007800ae00780024
:1015a00010806000002f780000000600c652000086
:1015b0008462000073650000740000002e00780053
:1015c000ae0078004301de00810041000100a1006f
:1015d0004200a8001100ad0000000600d852000033
:1015e00084620000636c0000720000002e0078002e
:1015f000ae0078004301de00810041000100a1003f
:101600004200a9001100ad0000000600f0520000e9
:101610008462000074730000740000002e007800e3
:10162000ae0078004301de00810041000100a1000e
:101630001100a5008180d3004f88de00002f7800c4
:101640000000060008530000866c0000736800006c
:1016500069660000740000002e007800ae0078007b
:101660000008dd00002f7800000006002453000071
:101670008672000073680000696600007400000054
:101680002e007800ae0078000008de00002f780001
:101690000000060038530000826e00003d0000008c
:1016a000ae0178002e0278009e027800040f7800c8
:1016b0009dff07001e007800f000b2000304e10067
:1016c0000d003a000402e8008502e800040f7800eb
:1016d00095ff0700052f780093ff07002e00780084
:1016e0001e04e10004003a008301e900f5ff3a001e
:1016f000000feb0000000600008feb00000006006a
:101700004c530000847300006b69000070000000ff
:10171000ae0178002e027800ae0278000400e000ee
:101720000b003200052f78007fff07002e007800a5
:101730006904e10003003200001ce10001003200f6
:10174000030037008502e8000402e900f5ff3a00d3
:10175000052f7800042f7800000006008253000057
:1017600084730000636100006e000000ae01780029
:101770002e027800ae0278000400e0000a00320079
:10178000052f780068ff07002e0078006904e1004b
:10179000050032000304e100030032008502e80086
:1017a0000402e900f6ff3a00052f7800042f7800c4
:1017b00000000600b0530000846500006d69000061
:1017c0007400000013000700860d040000000000f4
:1017d000dc530000836b00006579000013000700f4
:1017e000860d040000000000ea530000846b000036
:1017f000657900003f00000012000700860d04001c
:1018000000000000f653000085270000656d000011
:10181000697400007d020700e4ff0000045400002a
:10182000842700006b650000790000007702070044
:10183000e6ff000010540000852700006b650000e3
:10184000793f000071020700e8ff00001c5400000f
:10185000833e00006371000029ff07002e0078001e
:101860000b00fc00900090009e5878006207570023
:1018700010014000680141000110e10001003b003f
:10188000e800400011009800660040001008e800e1
:101890000000060028540000843e00006371000030
:1018a0003f00000016ff07001e0078000200fc0049
:1018b000b000900090805000cf88de00010f7800cb
:1018c000000006004c54000083630000713e0000dd
:1018d0000bff07001e007800000feb001001400016
:1018e000680141000900fc00a0009000314f780021
:1018f0000110e10001003b00e800400021009800d9
:10190000660040001008e900000006006454000072
:1019100084630000713e00003f000000f8fe0700f5
:101920001e007800b0009000010f78000000060053
:1019300088540000836300007130000056060700e1
:10194000bf000700eefe07002e0178000281e900cb
:10195000ae0078000500fc00820878006880400036
:1019600080287800802878008028eb00000006009e
:101970009a54000083630000713a0000a602070039
:10198000cf080700810a0700c50207003e0f780054
:101990001e0fe900c202070080002000002f78001f
:1019a000db000700a2020700df0a07000e0907009c
:1019b0007900070000000600ba540000a575000079
:1019c0003174000078710000a04e2500002f7800cf
:1019d00000000600020e00000f000000de540000b0
:1019e000a57500003172000078710000c04f25001d
:1019f000002f7800000006001a0e00003f000000d3
:101a0000f0540000837400007831000069eea800f3
:101a100010fd07000b0007002e00e000fbff320066
:101a200069eea900e8ff07008bff07008580a8008a
:101a300000000600025500008474000078310000a8
:101a40003f000000a04e2500002f7800520c04003b
:101a5000000000001c550000837200007831000077
:101a6000fcfc07000a0007002e00e000fcff32002b
:101a7000c04f2500002f780095ff070000000600ea
:101a80002c55000084720000783100003f000000f7
:101a9000c04f2500002f7800a0ff07001e00e000c7
:101aa00008003a00684eaf0006003700682eab0011
:101ab00004003200682ea90010012000002f7800d9
:101ac000d2ff07000000060042550000a36400009a
:101ad000757000003e0f780000000600665500009b
:101ae000876500007865000063750000746500007c
:101af0002e00780001802400010050000040010009
:101b00007055000083400000657800007cfe0700ef
:101b10002e007800018024000100500000400100e8
:101b20008255000094650000786900007400000090
:101b30004f00b10000000600932800002c2900008f
:101b4000cf0078004f007800302fba00801f780057
:101b5000811f780014090400000000009255000065
:101b600093280000632900006fb89700102fba0077
:101b70004f00b100000006006fb89700302fba0088
:101b8000e0bf9f00e20b040000000000b055000021
:101b900093280000642900004f0078004f0078006f
:101ba000cf007800cf007800112fba00004001006c
:101bb000c855000083730000702100001e077800e4
:101bc00000000600da55000083730000704000003a
:101bd0000e2f780000000600e4550000837200001c
:101be000704000000f80e90000afe900000006002f
:101bf000ee55000093720000703000004f00780036
:101c00004f2f7800f40907003dfe0700ae0778006b
:101c10002e00780000400100fa550000a464000086
:101c2000726f00007000000062075700000006009d
:101c30000e560000a47300007761000070000000e1
:101c40002e0078003e0f780070bf9f000000060055
:101c50001a560000a46f00007665000072000000b4
:101c60007eb89700002f7800000006002a5600007a
:101c7000837200006f7400006eb89700feb8970082
:101c80001e01780061bf9f0072bf9f00000f7800a7
:101c90000000060038560000b23e0000720000004e
:101ca000ae1f7800000006004c560000b272000023
:101cb0003e0000004f2f780000000600565600003e
:101cc000b2720000400000007fb89700002f78003b
:101cd000000006006056000083610000627300008f
:101ce0003e0f7800d7030700000006006c56000086
:101cf0008464000061620000730000003e0f780001
:101d0000480f04000000000078560000a12b0000de
:101d10002e0078001e0f40000000060086560000ce
:101d2000826d00002b0000002e0078008080eb0008
:101d300000f0a6008000eb004e1f40001e8f480000
:101d40000000060090560000826400002b00000096
:101d50002e007800ae0078002e0178001e9f400013
:101d6000020f480000000600a4560000a12d00004c
:101d70002e0078009e007800008f500000000600c2
:101d8000b6560000826400002d0000002e0078008e
:101d9000ae0078002e0178009e017800019f51006e
:101da000000f590000000600c2560000a3610000a9
:101db0006e6400002e0078001e0f60000000060018
:101dc000d6560000a26f0000720000002e007800be
:101dd0001e0f700000000600e2560000a37800000d
:101de0006f7200002e0078001e0f680000000600d1
:101df000ee560000a66900006e76000065720000d5
:101e0000740000001e8fea0000000600fa56000071
:101e1000a7640000696e000076650000727400001f
:101e20001e97ea001e9fea00000006000857000007
:101e3000a66e000065670000617400006500000088
:101e40001e0fea000000060018570000876400001b
:101e50006e650000676100007465000078ff070090
:101e60001e8fea0076ff07001e8fea002f02070090
:101e7000940e04000000000026570000883f000078
:101e8000646e00006567000061740000650000007a
:101e9000400007002e00e00001003200efff0700c5
:101ea000000006003e570000a23100002b00000099
:101eb0001e0fe8000000060054570000a232000088
:101ec0002b0000001e8fe800000006005e57000097
:101ed000a23100002d0000001e0fe90000000600e6
:101ee00068570000a23200002d0000001e8fe9009c
:101ef0000000060072570000a23200002a00000015
:101f00001e0fd000000006007c570000a3640000f4
:101f1000322a00004e0fd0005e8fd2000000060073
:101f200086570000a23200002f0000001e8fd10053
:101f30000000060092570000a3640000322f00004a
:101f40001e97d1001e9fd300000006009c57000082
:101f5000823000003d0000001e00e0000f003a004b
:101f6000008feb0000000600a8570000836400000b
:101f7000303d00002e0078001e0f700007003a0070
:101f8000b00f040000000000b657000082300000cf
:101f90003c0000001e00e000f1ff3300000feb00ea
:101fa00000000600c657000083640000303c0000bb
:101fb0002e00e000eaff3300ce0f04000000000016
:101fc000d4570000a221000070000000ae06780087
:101fd00000000600e2570000b4210000703e00003f
:101fe000720000008d1f7800ae0678000000060029
:101ff000ec570000b37200003e700000cf0678007e
:1020000000000600fa570000a24000007000000027
:102010000d2f7800000006000458000082700000b8
:10202000400000000d2f7800800a0400000000002e
:102030000e58000083700000634000000d2f7800f0
:10204000940a0400000000001a580000827000008a
:10205000210000000d2f7800580a04000000000045
:102060002658000083700000632100000d2f7800c7
:102070006c0a04000000000032580000a27000004a
:102080002b0000008d06e800000006003e5800000e
:10209000a3700000322b00008d86e80000000600cf
:1020a00048580000a37000002b2b00002e00780081
:1020b0008d064000000006005258000083730000a7
:1020c0003e6400003e0f7800ca0f040000000000cc
:1020d0005e580000837500006d2a00002e00780015
:1020e0001e01b800021f7800030f780000000600f0
:1020f0006a580000826d00002a0000002e0078005f
:102100001e81b900021f7800030f7800000006004e
:102110007a580000867500006d2f00006d6f00007a
:10212000640000002e017800ae0078002e007800d8
:10213000110009004288d800012f7800002f780094
:10214000000006008a580000867300006d2f000012
:10215000726500006d0000002e017800ae0078006e
:102160002e007800110009004208d800012f7800e5
:10217000002f780000000600a458000085750000bc
:102180002f6d00006f6400002e0178002e00780093
:10219000110009000280d800012f7800002f78007c
:1021a00000000600be580000842f00006d6f000084
:1021b000640000002e0178002e0078001100090054
:1021c0000200d800012f7800002f780000000600e0
:1021d000d4580000836d00006f6400002e01780069
:1021e0002e007800110009000200d800012f7800ad
:1021f00000000600ea5800008475000073650000c6
:102200007200000051000700f70607004f00780039
:102210004f0078001000ba000a0fb400002f7800b9
:1022200000000600fc58000085760000616c00008c
:1022300075650000a206070099000700ea0607007e
:1022400055fe0700800a0400000000001459000039
:10225000856400006566000065720000980607004e
:10226000405c2600002f78008d000700de06070086
:1022700049fe0700860d04000000000028590000f8
:10228000c269000073000000640607001e8fe800aa
:102290009bfc0700360807002e00e0000400320017
:1022a0000dfa070026fe0700585200000100370013
:1022b0007ffc07000000060040590000c2740000c7
:1022c0006f00000044110400000000005e5900008f
:1022d000a53e0000626f0000647900001e8fe800d8
:1022e0000000060068590000887600006172000056
:1022f00069610000626c0000650000006300070077
:102300007800070088080700be11040000000000e4
:102310007459000089320000766100007269000083
:10232000616200006c65000058000700400020005a
:10233000002f78007c080700be1104000000000098
:102340008a590000836300006f3a00005c060700b2
:10235000640007001e0fea006c080700040904006f
:1023600000000000a2590000886300006f6e0000aa
:1023700073740000616e000074000000bd06070069
:10238000d5f907005a1f040000000000b4590000ee
:1023900089320000636f00006e73000074610000fa
:1023a0006e74000026fe0700b2060700caf9070097
:1023b000c9f907005a1f040000000000c8590000b6
:1023c000a3700000666c000000802400002f7800dd
:1023d00000000600e0590000a33e00007861000004
:1023e000008024009e007800008f5000000006004e
:1023f000ec590000a3780000613e0000008024003a
:102400001e0f400000000600fa590000856600001b
:102410006c61000073680000400020002078880094
:1024200000000600065a000083720000616d000083
:10243000042fef00000006008363000073650000b6
:1024400020788000002f78000000060083690000db
:1024500064700000c4fd07007a0e0000145a0000ea
:10246000826400007000000060e72000002f780008
:10247000f3ff0700880e040000000000305a00003f
:10248000846800006572000065000000f6ff070028
:10249000800a040000000000405a0000812c000067
:1024a000faff070002fc07000e0007009422040058
:1024b000000000004e5a0000826300002c00000063
:1024c000f2ff070004fc07009800070094220400b4
:1024d000000000005c5a0000a4630000656c00006e
:1024e0006c00000020002000002f78000000060093
:1024f0006c5a0000856100006c690000676e000086
:10250000e2ff070008000700d7ff0700580a040091
:10251000000000007a5a0000876100006c6900002a
:10252000676e0000656400001e0fe800e0ff2f00ea
:10253000002f7800da0e0400000000008c5a000022
:10254000a5630000656c00006c2b00001e8fe80086
:1025500000000600a05a0000a5630000656c0000a2
:102560006c7300001e0fd00000000600ac5a000083
:10257000a563000068610000722b00001e0fe800d8
:1025800000000600b85a0000a56300006861000062
:102590007273000000000600c0ff2f00002f7800bb
:1025a0008622040000000000c45a000082320000ad
:1025b000400000003e0f7800d1fb0700a0fd07009f
:1025c0001e8fe800800a040000000000d65a0000b8
:1025d000823200002100000099fd0700a0fd0700e5
:1025e0001e8fe800b2fb0700580a0400000000003c
:1025f000e85a0000a5320000647200006f7000000d
:102600006407570000000600fa5a000084320000f8
:10261000647500007000000091fd0700300e04009a
:1026200000000000065b00008532000073770000a8
:102630006170000090fd0700ae1f78008efd07005e
:102640004f2f780000000600065b00008263000048
:1026500072000000d0002000002f780059fc070015
:10266000a0002000002f7800e20b04000000000012
:10267000265b000085730000706100006365000048
:1026800034070700e20b0400000000003a5b000082
:102690008673000070610000636500007300000035
:1026a0001e00e00003003200f5ff07001e0fe900e6
:1026b000fbff37006207570000000600485b000080
:1026c000847500006d6900006e000000d2ff0700f5
:1026d000fb0007002e00e0000100320058fd07005b
:1026e0006207570000000600605b00008475000070
:1026f0006d61000078000000c7ff0700e9000700d7
:102700002e00e000010032004dfd07006207570077
:1027100000000600765b0000a1300000002feb00f7
:10272000000006008c5b0000a131000010002000ba
:10273000002f780000000600945b00008661000016
:1027400063630000657000007400000044fd070032
:102750006ffd070042fd070020fc07001e00780007
:102760006d00e10005003a0062075700ac07070062
:102770002e00070058fb0700260037006a00e10022
:1027800009003a00620757002800070066fb0700af
:10279000040607001f0032009b0707002300070004
:1027a0004dfb0700ecff37003e0f780005fc0700eb
:1027b000950707001d00070047fb07003e0f780044
:1027c00080002000002f7800910007002e00e0001c
:1027d00007003200620757001e0fe900ae1f7800a5
:1027e0001ffd07004f2f7800c3ff0700daff3700f7
:1027f0001bfd070038fb07001e0fe80018fd07004f
:10280000b2ff070084ff07007b0007002e00e000f6
:10281000d1ff3a002e0f780009fd0700b80e040022
:1028200000000000836600006372000077fe07006e
:10283000f2ff00009e5b0000832e00006964000030
:102840008c020700f0002000002f780059fd0700df
:10285000ae1f78000300370086020700090007005a
:10286000d8fb0700cf1fe900fbff31004f007800c5
:1028700062075700000006001c5c0000833e000059
:10288000707200003e0f7800b2060700f0072000cb
:10289000002f78004e0007002e00e00002003a00f2
:1028a000e0022000000f7800000006003e5c0000ff
:1028b000847400007970000065000000ae1f78008d
:1028c000020037006b020700befb0700cf1fe900c4
:1028d000fcff31004f00780062075700000006003f
:1028e000585c0000842800007322000029000000ca
:1028f0004f0078004f2f7800008024001e0f40000a
:102900005c02070044ff070001fd070006ff070007
:102910002e007800018024000100500000400100da
:10292000725c0000d27300002200000084fc0700eb
:10293000785c0000b8fe07000500070018120400cc
:1029400000000000925c0000822c000022000000c9
:1029500020022000002f7800d0010700cbfe0700e6
:10296000bffc070052fd0700effe0700ee06070060
:102970002819040000000000a45c0000d22e000012
:1029800022000000e9ff07006dfc07005e5c00000c
:1029900000000600be5c0000822b00002100000049
:1029a000a7fc0700aefc0700d5fa0700d8fc07001b
:1029b000a3fc0700580a040000000000cc5c0000e3
:1029c0008677000069740000686900006e000000ee
:1029d000a3fc0700e6fc0700ae1f7800e4fc07003c
:1029e0004f2f78005215040000000000e05c00004a
:1029f000823c00003e0000002e0078001e00e10036
:102a000057fd3a0065fd3700f85c0000813d00008d
:102a10002e0078001e00e10051fd32005ffd3700fe
:102a2000065d0000826400003d000000d7fc070046
:102a3000ba0f040000000000125d0000813c00009d
:102a40002e0078001e00e10045fd3c0053fd3700dc
:102a50001e5d0000826400003c000000cbfc07000b
:102a6000d80f0400000000002a5d0000813e000035
:102a70002e0078001e00e10039fd350047fd3700cb
:102a8000365d0000826400003e000000e9fe0700a1
:102a90002e15040000000000425d00008275000059
:102aa0003c0000002e0078001e00e1002cfd3e00de
:102ab0003afd37004e5d0000827500003e000000c8
:102ac0002e0078001e00e10025fd390033fd37009f
:102ad0005c5d0000812a000080fd0700620757004e
:102ae000000006006a5d0000827500002f000000f3
:102af000a5fd07002e0f780000000600745d0000a1
:102b0000867500002a2f00006d6f00006400000031
:102b1000ae1f780071fd07004f2f7800921004005f
:102b200000000000805d0000852a00002f6d00007d
:102b30006f640000ae1f780070fd07004f2f780013
:102b4000ac10040000000000945d0000822a000028
:102b50002f000000ae1f780068fd07004f2f78009f
:102b60007dfd07002e0f780000000600a65d000026
:102b7000812f00002e0178002e007800110009003e
:102b80000200d800002f780000000600b85d0000a9
:102b900083750000642a0000cefb0700ae1f78009a
:102ba0004efd070020fc070025fc07004f2f780092
:102bb0004afd070030fc0700880e040000000000fa
:102bc000c85d000086750000642f00006d6f000076
:102bd00064000000ae1f78008b0607007fb89700e6
:102be000002f78004ffd070023fc070022fc0700a0
:102bf0004f2f78004bfd07003c0e04000000000042
:102c0000e25d0000a36e0000697000002e0f7800e6
:102c100000000600025e000084740000756300007e
:102c20006b00000006fc0700300e040000000000ee
:102c30000c5e0000873f00006e65000067610000c9
:102c400074650000d3fc07002e00e0000100320094
:102c50001e0fea00000006001a5e0000836d0000ef
:102c6000617800006cfe070075ff07002e00e00091
:102c700001003200f2fb0700620757000000060067
:102c80002e5e0000836d0000696e000062fe07008a
:102c900077ff07002e00e00001003200e8fb07008c
:102ca0006207570000000600425e000082750000c7
:102cb00070000000acfb07000a0f0000565e000029
:102cc000846800006f6c0000640000005406070078
:102cd000c400070032ff0700c200070008fa07001f
:102ce0006c0a040000000000605e0000823c0000ee
:102cf00023000000c0000700ba000700580a0400c3
:102d000000000000765e0000863e0000646900005e
:102d100067690000740000003e0f780090002000fa
:102d2000002f780052ff070070022000002f78006b
:102d300020fc0700f6fb070000032000002f7800ae
:102d4000880e040000000000845e00008123000063
:102d5000b1000700eaf907009eff0700c6fb070065
:102d6000edff07006616040000000000a65e0000ec
:102d70008223000073000000f5ff070026fe070015
:102d800012fc07002e00e000fbff3a0000000600e6
:102d9000b85e0000822300003e0000006407570078
:102da00090000700d6f9070093000700acfb07006e
:102db000b80e040000000000ca5e0000847300002a
:102dc000696700006e00000072fc07002e00e00042
:102dd00003003200d0022000002f7800bbff070064
:102de00000000600de5e0000827500002e0000007c
:102df000c0ff070004060700dfff0700e7ff07002a
:102e0000aefe07004013040000000000f45e000066
:102e1000837500002e720000b6ff07001e0fe90048
:102e2000ae1f7800f805070001003700c8ff070053
:102e3000cf1fe900fdff31004f007800ceff0700f3
:102e4000d6ff07009dfe07004013040000000000ad
:102e5000085f0000812e0000a6ff07003e0f7800eb
:102e60009ffb0700e8050700c3ff070082fb070080
:102e7000d5ff0700c9ff070090fe070040130400bc
:102e8000000000002a5f000083750000642e00002f
:102e900098ff0700b8ff0700c0ff070087fe070084
:102ea0004013040000000000445f00008264000042
:102eb0002e0000008fff07009e1f78008ffb070089
:102ec000adff07004f2f7800bfff0700b3ff0700db
:102ed0007afe07004013040000000000565f000067
:102ee000826800006900000040f82500002f78008b
:102ef0002012020000000000880e02000000000006
:102f0000800a040000000000ff470000ffff0000ef
:102f1000ffff0000705f0000876400006563000031
:102f2000696d0000616c0000a0002000002f780097
:102f300039000700580a0400000000008c5f000000
:102f4000836800006578000000012000002f7800f1
:102f500031000700580a040000000000a05f0000d4
:102f600083620000696e00005efd07002a00070012
:102f7000580a040000000000b05f000085750000e2
:102f80006c6900006e6b0000a0fc0700eaff000007
:102f9000be5f00008572000073610000766500006e
:102fa0009afc0700f4ff0000ca5f00008573000070
:102fb000736100007665000094fc0700f6ff0000d6
:102fc000d65f000084740000617300006b00000095
:102fd0008efc0700f0ff0000e25f00008268000046
:102fe0007000000089fc070000000000ee5f000098
:102ff0008370000061640000a001070095010700d4
:10300000880e040000000000f85f000084620000e9
:1030100061730000650000007cfc0700ecff00000d
:1030200006600000867300006f7500007263000088
:1030300065000000a3010700da1204000000000090
:1030400012600000872f0000737400007269000096
:103050006e670000fafa070001fb070044fb070057
:10306000ae1f78002afb07004f2f780000000600f3
:1030700022600000c15c0000eeff07008a0107002b
:103080000bf9070062075700000006003a600000d5
:103090008570000061720000736500003e0f7800cb
:1030a000e4ff07008001070015f90700e9ff0700aa
:1030b0003e0f7800ae1f7800effa070094f9070082
:1030c000e7fa0700ae1f7800ebfa0700a7f9070040
:1030d0001e00e000010032001e0fe9004f2f7800b3
:1030e0004f2f7800e4fa070021fb07006e0107006c
:1030f0002bfe0700cbfe0700b80e04000000000006
:1031000048600000847700006f72000064000000d7
:10311000e2ff0700cafa07006ffb0700c1fe0700c5
:103120006c0a040000000000826000008565000059
:10313000726100007365000000002000002f78001d
:10314000be180400000000009660000086620000c7
:103150006c6100006e6b0000730000000002200034
:10316000002f7800be18040000000000a6600000d8
:1031700084660000696c00006c0000008d1f780000
:10318000ae007800ae1f78009e067800010f780030
:10319000030037003e0f7800b4fb07008d06e800ff
:1031a000cf1fe900fbff31004f007800cf06780009
:1031b0006207570000000600b86000008563000049
:1031c0006d6f0000766500008d1f7800ae1f7800df
:1031d000ae0678000300370026000700a3fb0700b7
:1031e0008d06e800cf1fe900fbff31004f0078009b
:1031f000cf0678006207570000000600de6000007e
:10320000857700006d6f0000766500008d1f7800e7
:10321000ae1f7800ae067800030037001e000700de
:103220008cfb07008d86e800cf1fe900fbff310013
:103230004f007800cf0678006207570000000600b4
:1032400000610000857000006c6100006365000093
:10325000f1fc0700a0f807001e0fe80078fa07004d
:10326000e4180400000000002261000083630000f5
:10327000402b00003e0f7800abf807007eb89700a7
:103280000000e80070bf9f000000060036610000eb
:10329000824000002b0000003e0f780098f80700e5
:1032a0007eb897000080e80070bf9f000000060015
:1032b00048610000836e00003e630000edff0700e0
:1032c000f0002000002f7800bafa070090fa0700fb
:1032d0001e0fe800e0ff2f00002f7800da0e040038
:1032e000000000005a610000836300003e6e000091
:1032f0001e0fe9001e0fe9003e0f78008af8070054
:10330000f0072000002f7800d9fd07002e00e00014
:10331000f8ff3200000006007461000083280000fe
:1033200066290000bcfc07004dfa07007ef8070084
:10333000dbf807001e00e0000500320062075700be
:10334000eafa07006ef807001e00a1003e0f7800a1
:103350002e00e000f3ff3a001e00e00008003200fb
:103360002e0f78003e0f7800d4ff070034fa0700d4
:103370000a000700f8fa0700ecfc070093fa0700c0
:10338000b4f60700000006008e61000086690000a8
:103390006d6d0000656400003f00000062f80700ea
:1033a00000842400002f7800da0e040000000000e2
:1033b000c661000084660000696e000064000000c1
:1033c000a0b02600002f7800d6ff07001e00e00006
:1033d00004003a0062075700f503070048f80700a9
:1033e000d0ff070000000600da61000086640000dc
:1033f00069670000697400003f0000003e0f78001c
:1034000090032000002f780099fd07002e00e000b7
:103410000300320070022000002f780054fa0700e9
:1034200000032000002f780051fa07003e0f7800bb
:10343000f9fe070032f8070081fd070008fa0700cf
:10344000d4fa07001e8fea00da0e04000000000024
:10345000f661000085730000696700006e3f0000a0
:10346000fff9070030f80700c0022000002f7800a5
:103470003ffa07003e0f780019fa0700abfc07007f
:1034800063fd07004bfa07001e00e0000500320054
:103490001e0fe800ae1f7800a4fc0700edfe070039
:1034a0004f2f7800000006002a620000873e0000cf
:1034b0006e7500006d620000657200001e00e00085
:1034c00015003200ae1f78009e1f780016f8070026
:1034d000caff07002e00e00004003a006207570010
:1034e0004f2f78004f2f78000b003700ae1f780069
:1034f000c9fe070002f80700a7fd07004f2f78005c
:1035000009fa07004f2f78004f2f780087fc07003b
:10351000d0fe0700e9ff370000000600945f0000be
:10352000a45f0000b45f000056620000876e0000d8
:10353000756d000062650000723f00003e0f78006c
:103540003104070030040700cbf9070049ff0700ea
:10355000c3ff0700ae1f7800affe0700e8f70700c3
:10356000ae1f7800bef90700eff707003002200019
:10357000002f7800fef907003e0f78003000200091
:10358000002f780047fd07002e00e0000800320001
:103590001e0fd000e0282600002f7800dcf907007d
:1035a0005af9070061fc0700aafe07000100370076
:1035b00062075700c1ff07004f2f780096fe0700f3
:1035c000bbf707003e0f78001e8fe90071fa070075
:1035d0002e00e00005003a004f2f780066075700e4
:1035e00064075700080407001600370011fc0700a5
:1035f0004f2f78002e00e0000100320017fa07007c
:103600000cfc07002e00e0000b003200c6f707009c
:10361000e0022000002f7800d5f907002e00e0001e
:10362000efff3a0094f907006207570020002000de
:10363000002f780003003700f1fb070073fd07003f
:103640003afc070000000600966200008374000048
:10365000692300005efe0700a9f707005000200064
:10366000002f7800aaf90700940a04000000000067
:1036700026630000837400006962000005000700f3
:10368000800a0400000000003a6300008374000018
:1036900069750000ddfa0700eeff000046630000d8
:1036a000833e0000696e0000d8fa0700feff0000ac
:1036b0005063000087270000736f000075720000e0
:1036c00063650000d1fa0700faff00005a630000aa
:1036d000836900006e3f000093f70700000220009e
:1036e000002f7800da0e040000000000686300007c
:1036f000896900006e74000065720000707200003d
:1037000065740000efff0700b3fb0700be0307006e
:10371000e5ff070066f707000e0307007cfe0700c1
:103720003e0f780080f707002e00e00063003200b3
:1037300023ff07001e00e000490032001e0fe800d2
:103740000b03070004fa0700a0f907002e00e000b1
:10375000270032003e0f7800e5fe070072f70700f1
:1037600000012000002f780092f907002e00e000f1
:103770000a003200fe0207005dfc07000c43000057
:103780004f4d0000504900004c450000204f000004
:103790004e4c0000590000000d0107003e0f78005c
:1037a000a0752600002f780099fc07002e00e0008d
:1037b0004220af00690ea90068cea9003e0f780034
:1037c000c0032600002f780091fc07002e00e000c7
:1037d0004220af0068cea800c5f8070068ceae0052
:1037e000cdff3700688ea90068aea900caff370078
:1037f000690ea900688ea9003e0f7800c07a2500e6
:10380000002f780082fc07002e00e000020032004a
:10381000688ea800100037003e0f7800a0562500e3
:10382000002f78007afc07002e00e0000200320032
:1038300068aea8000100370068aea9003e0f78000e
:10384000abfe0700a4ff07002e00e00002003200dc
:10385000e5010700b0ff370073f60700aeff370041
:10386000690ea900688ea90068aea900620757001a
:1038700032ff07001e00e0000b003200bc02070010
:103880002e00e000060032002e10a60002003700d5
:10389000ebf8070090f407008ff407009eff370055
:1038a000620757009cff37000e87e90071fe070092
:1038b00002fc070054030700bd0007006207570021
:1038c0000000060078630000837300006862000057
:1038d000b70207000af707003e0f780012f707004b
:1038e000e5f8070039f90700d5f807006c0a04006d
:1038f0000000000064640000896900006d6d000034
:103900006564000069610000746500000004200027
:10391000002f7800681c0400000000007c64000098
:10392000876900006e6c0000696e0000656400002d
:1039300000022000002f7800681c04000000000036
:1039400090640000832e000073740000c003200008
:10395000002f78009bf707003303070099f7070053
:10396000c0022000002f780096f7070043030700ed
:10397000d2fb0700e0032000002f780091f707003a
:103980003ffb0700642204000000000076f80700f7
:10399000006c000074f807000070000072f8070067
:1039a0000074000070f807000078000000c02400d8
:1039b000002f780038fe0700f4ff070085f60700a7
:1039c00035fe0700f3ff070082f6070032fe07000e
:1039d000f2ff07007ff60700c9f60700f1ff0700b6
:1039e0007cf63700a264000083640000703e000093
:1039f0008d1f78004de72000e4ff07004000200005
:103a0000002f7800ae1f780032f8070066f6070036
:103a100090f90700a0f9070006000700cf1fe90092
:103a2000f9ff3a004f007800cf067800140e04002a
:103a30000000000000402000002f7800b4f837009c
:103a4000f4640000833e00006470000040e7200042
:103a5000002f78008d1f7800ae067800cbff07009e
:103a600040002000002f7800ae1f780019f80700f2
:103a70004df607006bf90700e5fb07002e00e0009c
:103a800003003a0067f9070075f8070054f60700cd
:103a9000e8ff070080f90700cf1fe900f3ff3a00b5
:103aa0004f007800cf06780062075700000006003c
:103ab00083730000703f000045f8070041020700d3
:103ac0008ff60700edfe0700c1fb070088fb07002b
:103ad00003530000503f00003d00070000000600b7
:103ae0002265000084710000756900007400000008
:103af00042f80700d70007004dfa0700d4f5070089
:103b0000bbff0700ecff0700d2fa0700dbfe07004f
:103b10003e0f7800cffe0700a0002000002f7800a5
:103b200093f8070009fb0700d5fa0700f5fe070028
:103b30000f0207002e00e000f2ff3a00c3ff07006b
:103b40006bfb0700032000006f6b00005bfb0700ae
:103b500007000700e9ff370000000600726500005b
:103b600086700000726f00006d700000740000002d
:103b7000bff90700060f0000b06500008561000076
:103b8000626f0000727400000e0207005cf607000e
:103b90000af80700781d040000000000be65000060
:103ba000873f0000616200006f720000743f0000f8
:103bb0004ffb0700013f000005003700d065000003
:103bc000863f0000616200006f7200007400000018
:103bd00029f807002e00e00003003a00a8fa0700c9
:103be00036fb0700e8ff07006407570000000600e7
:103bf000e0650000d6610000626f00007274000092
:103c00002200000049fb0700cdf70700e86500002f
:103c100000000600fa65000081270000cd010700c2
:103c20003bfd0700e6fd0700d81d04000000000072
:103c30000c660000846300006861000072000000f0
:103c4000c401070015fd07000e87e900940a04006f
:103c5000000000001a660000c12800009002200049
:103c6000002f78000dfd07006407570068cea900fb
:103c700000000600856900006865000072650000ac
:103c8000d0738000002f7800000006002c66000032
:103c9000d65b000063680000617200005d000000f8
:103ca000e7ff07006c050400000000004866000004
:103cb000866300007265000061740000650000000a
:103cc000a401070012fd07003e0f7800bcfd0700ad
:103cd000cefb0700a0f8070005fb07000f4100001e
:103ce0004c520000454100004459000020440000af
:103cf00045460000494e000045440000b4ff07005f
:103d00003e0f780008f6070088fa0700000120003f
:103d1000002f78002efb0700a5ff0700a401070075
:103d2000f7f5070038f5070052fd0700d4ff07003c
:103d30003e0f78009e010700ddf5070044fd0700f7
:103d4000cfff0700f8f5070000082000002f7800db
:103d5000dffe07001e0fe800f3f90700eb01070084
:103d600077f70700b4550000e5f90700c7f9070029
:103d7000207880004000b10001003a001e8fe8006a
:103d8000040904000000000058660000d87000001c
:103d90006f730000747000006f6e0000650000001b
:103da0006c010700dafc070085fd07003e0f780074
:103db0007fff070077f807002e00e00004003200c4
:103dc0005ff70700a0550000040904000000000090
:103dd000140904000000000087280000646f000040
:103de000657300003e2900004f0078004f00780006
:103df00001802400012f40006d010700c0f507007d
:103e00002efd07009eff0700ae1f780091f9070006
:103e1000a7f5070004f507004f2f78008df907007c
:103e2000a3f5070000000600c6660000d564000088
:103e30006f650000733e000041f70700f466000064
:103e40003ff70700cc550000000006001667000091
:103e5000c15b0000082fef0000000600286700008b
:103e6000815d000008afef00000006003067000031
:103e7000813a000092ff0700faff0700c0ff2f0001
:103e8000002f780086220400000000003867000040
:103e9000873a00006e6f00006e6100006d650000e3
:103ea00077ff0700321f0400000000004867000091
:103eb000d13b0000690eab001b003a0070ff070009
:103ec0001e8fe9003e0f7800aef40700700020005e
:103ed000002f7800cefa07002e00e000110032001b
:103ee0001e0fd00066ff070089f70700008024003e
:103ef000002f78009ef7070040002000002f780078
:103f00005df7070098f40700002feb00002feb008f
:103f10005bff070094f4070072f907007b010700bc
:103f20000300370064075700690ea90031f4070049
:103f30002a1f04000000000058670000d23b000068
:103f40006900000040c92400002f78007b000700b2
:103f50002a1f0400000000009e670000d35b0000e1
:103f6000275d00002dff07006c0504000000000025
:103f7000842c00003f3000003d00000068aeab0024
:103f800003003a00207d2600002f78000300370050
:103f90007f000700607d2600002f780068aea90032
:103fa000110037002e00e000000006001e00e000b7
:103fb00000000600ae670000d66900006e6c0000cd
:103fc000696e000065000000688ea90068aea90057
:103fd00012ff0700f41f040000000000dc6700006f
:103fe000836900006e2c00003e0f780065f4070026
:103ff0003e0f780060002000002f78007efa070056
:104000002e00e0000300320064f407001e8fe80079
:10401000f5ff37006607570000000600f067000054
:10402000837500006e2c0000cff60700070000002b
:1040300010680000827a00002c000000caf6070019
:10404000020000001a680000836e0000632c00006c
:10405000c5f607000900000024680000846e000017
:104060006f7400002c00000080002000002f7800fa
:10407000f20e0400000000002e68000083690000ba
:10408000662c0000f8ff0700fdfe0700ecf60700b5
:104090005d01070022080400000000003e680000e7
:1040a00085740000686500006e2c0000690ea80091
:1040b000f3fe0700eaf607002df707001e8fe90060
:1040c0001e8fd100def607009e1f78002df407003a
:1040d0002e0f78004f2f7800b40804000000000075
:1040e00050680000856500006c730000652c0000be
:1040f000e3fe0700ccff070043010700d1f30700f0
:10410000cff607005620040000000000726800008f
:104110008662000065670000696e00002c000000e8
:10412000401e040000000000886800008661000056
:1041300067610000696e00002c000000d0fe0700df
:104140000bf707001e8fe900b7ff0700bcf607005a
:104150002208040000000000966800008675000038
:104160006e740000696c00002c000000690ea8004d
:10417000bdff0700b2f60700c1fe0700fcf607000e
:104180001e8fe900220804000000000081200000ca
:10419000e0ff2f00002f78008622040000000000be
:1041a000ae680000d269000066000000688eaf00b3
:1041b000f7ff070071ff0700a0ff0700688eae0041
:1041c000a9ff0700688ea90042200400000000003b
:1041d000d2680000d4740000686500006e00000022
:1041e0005620040000000000ea680000d4650000ca
:1041f0006c730000650000007820040000000000df
:10420000f6680000d562000065670000696e000076
:10421000401e04000000000002690000d575000087
:104220006e740000696c0000688eaf00d8ff070054
:1042300052ff070081ff0700688eae008aff07006b
:10424000688ea900b6200400000000000e6900007e
:10425000d561000067610000696e00009e200400c7
:104260000000000028690000d577000068690000a0
:104270006c650000cdff0700200e04000000000068
:1042800034690000d67200006570000065610000ae
:1042900074000000f1ff0700f0200400000000009f
:1042a00042690000d36600006f72000000652500bf
:1042b000002f78004cff070071fe07005aff07002f
:1042c000d10007005ff307006dfe0700200e040019
:1042d0000000000052690000d46e00006578000004
:1042e0007400000071ff070060982600002f78001e
:1042f0003dff070056ff07009cff0700009a2600bd
:10430000002f7800f41f040000000000cf1fe90018
:10431000000006006c690000b56500006e640000d6
:10432000697400004f007800801feb000000060059
:104330008c690000b5720000647200006f700000ac
:104340004f007800000006009a690000a262000099
:104350006c00000000022000002f78000000060022
:10436000a669000085730000746100007465000098
:1043700040788000002f780000000600b26900003d
:1043800085720000686500007265000060e720002b
:10439000002f7800800a040000000000c0690000bf
:1043a000866c0000617400006573000074000000fa
:1043b000edf50700780e0000d06900008273000060
:1043c0003000000091f70700e0ff0000de69000008
:1043d00082720000300000008cf70700e2ff00004e
:1043e000e8690000a5740000696300006b730000b9
:1043f00090738000002f780000000600f269000032
:10440000826d000073000000f9ff070040f607000e
:1044100090f207009e0078009073800000805000aa
:10442000fbff3b006207570000000600006a000027
:10443000857700006f72000064730000720007004f
:1044400084f80700a0b02600002f780004000700c1
:104450006d0007007ff80700d5ff070028f407006c
:104460003e0f7800f6f80700f5f507001e0fe8008c
:104470003e0f780070002000002f78004df60700f6
:104480002e00e0000400320090002000002f780091
:10449000ccf40700010037006ef80700e8f50700cc
:1044a00092f6070016f407001e00a1001e00e000af
:1044b000ebff3a006407570000000600186a00008e
:1044c000822e000073000000c1f50700bdff070049
:1044d0000bf407001e8fe8004ff8070058f907009b
:1044e0002e00e00003003a006bfb070040fa0700d3
:1044f000f9ff3700640757000000060086690000d6
:10450000616c00006c6f000074000000d1f70700c0
:10451000d014040000000000606a00008561000003
:104520006c6c00006f740000cff70700d01404001b
:10453000000000008e6a000084640000756d0000b9
:104540007000000000012000002f780068f90700cb
:10455000ae1f78001d0037003ef807003e0f7800c0
:1045600040002000002f78002bfa0700a003200055
:10457000002f780093f4070000012000002f78003e
:10458000ae1f78003bfb0700d6f7070022fa0700b2
:10459000cf1fe900fbff3a004f0078000001200028
:1045a000002f7800f2f5070000012000002f7800ae
:1045b000ae1f78002ffb0700b2f8070081f4070058
:1045c000cf1fe900fbff3a004f007800cf1fe90042
:1045d000e1ff31004f00780062075700000006003d
:1045e0009c6a0000a34600006379000050bf2600cb
:1045f000002f780000000600f26a0000a5660000a7
:10460000616c000073650000002feb0000000600e5
:10461000fe6a0000a47400007275000065000000ce
:1046200000afeb00000006007bfa0700b4f30700c0
:104630001e007800f000500002003a004002200006
:1046400009003700ea00500002003a003002200062
:1046500005003700e200500002003a00500220003e
:1046600001003700f0032000000f78000000060072
:10467000145a000000000000065a000070f70700fe
:1046800080b32600002f7800a1f507009cf30700f7
:10469000f8fa0700f0002000002f7800da0e04007e
:1046a0000000000000000000866d00006172000044
:1046b0006b6500007200000040e72000002f7800ca
:1046c000c0e72000002f780040002000002f780075
:1046d000cefa070050f7070079fd0700c0e7200079
:1046e000002f780069f7070040002000002f7800b5
:1046f000c6fa070080002000002f78008aff07001c
:104700004bf70700b8fd070023f5070040e720003e
:10471000002f780040002000002f780006190400c8
:104720000000000000000000000000000000000089
:104730000000000000000000000000000000000079
:104740000000000000000000000000000000000069
:104750000000000000000000000000000000000059
:104760000000000000000000000000000000000049
:104770000000000000000000000000000000000039
:104780000000000000000000000000000000000029
:104790000000000000000000000000000000000019
:1047a0000000000000000000000000000000000009
:1047b00000000000000000000000000000000000f9
:1047c00000000000000000000000000000000000e9
:1047d00000000000000000000000000000000000d9
:1047e00000000000000000000000000000000000c9
:1047f00000000000000000000000000000000000b9
:00000001FF
