:020000040000fa
:08000000e411040000000000ff
:020000040000fa
:10000800be1000002410000024100000241000007e
:1000180024100000be100000be100000be1000003a
:10002800be100000be100000be1000002a10000024
:10003800be100000be100000be100000be10000080
:10004800be100000be100000be10000054100000da
:10005800a4100000be100000be100000be1000007a
:10006800be100000be100000be100000be10000050
:10007800be100000be100000be100000be10000040
:10008800be100000be100000be100000be10000030
:10009800be100000be100000be100000be10000020
:1000a800be100000be100000be100000be10000010
:1000b800be100000be100000be100000be10000000
:1000c800be100000be100000be100000be100000f0
:1000d800be100000be100000be100000be100000e0
:1000e800be100000be100000be100000be100000d0
:1000f800be100000be100000be100000be100000c0
:10010800be100000be100000be100000be100000af
:10011800be100000be100000be100000be1000009f
:10012800be100000be100000be100000be1000008f
:10013800be100000be100000be100000be1000007f
:10014800be100000be100000be100000be1000006f
:10015800be100000be100000be100000be1000005f
:10016800be100000be100000be100000be1000004f
:10017800be100000be100000be100000be1000003f
:10018800be100000be100000be100000be1000002f
:10019800be100000be100000be100000be1000001f
:1001a800be100000be100000be100000be1000000f
:1001b800be100000be100000be100000be100000ff
:1001c800be100000be100000be100000be100000ef
:1001d800be100000be100000be100000be100000df
:1001e800be100000be100000be100000be100000cf
:0801f800be100000be10000063
:020000040000fa
:10020800be1000002410000024100000241000007c
:1002180024100000be100000be100000be10000038
:10022800be100000be100000be1000002a10000022
:10023800be100000be100000be100000be1000007e
:10024800be100000be100000be10000054100000d8
:10025800a4100000be100000be100000be10000078
:10026800be100000be100000be100000be1000004e
:10027800be100000be100000be100000be1000003e
:10028800be100000be100000be100000be1000002e
:10029800be100000be100000be100000be1000001e
:1002a800be100000be100000be100000be1000000e
:1002b800be100000be100000be100000be100000fe
:1002c800be100000be100000be100000be100000ee
:1002d800be100000be100000be100000be100000de
:1002e800be100000be100000be100000be100000ce
:1002f800be100000be100000be100000be100000be
:10030800be100000be100000be100000be100000ad
:10031800be100000be100000be100000be1000009d
:10032800be100000be100000be100000be1000008d
:10033800be100000be100000be100000be1000007d
:10034800be100000be100000be100000be1000006d
:10035800be100000be100000be100000be1000005d
:10036800be100000be100000be100000be1000004d
:10037800be100000be100000be100000be1000003d
:10038800be100000be100000be100000be1000002d
:10039800be100000be100000be100000be1000001d
:1003a800be100000be100000be100000be1000000d
:1003b800be100000be100000be100000be100000fd
:1003c800be100000be100000be100000be100000ed
:1003d800be100000be100000be100000be100000dd
:1003e800be100000be100000be100000be100000cd
:0803f800be100000be10000061
:020000040000fa
:1004000091018800800078000000eb0015003700a3
:10041000e280400032a0b4009101ba00e2804000c6
:1004200032a0b4009102ba00e280400032a0b400d1
:100430000002eb00472bde00f507b200602ce10064
:1004400004003a000059eb008301e900fdff3e0083
:10045000040037006128e100010032000082eb0057
:10046000040007001101ba000200e000e8ff3a00b2
:10047000000006003159ba008301e9000c00320087
:100480002159ba008301e900080032000400e000ad
:1004900003003a00e280400032a0b400f5ff3700cc
:1004a00011d9ba008301e900faff3a008100e8009f
:1004b000e180400032a0b40000000600ac3004002f
:1004c000000000000044040000000000a628040012
:1004d00000000000061904000000000030190400ac
:1004e000000000004819040000000000d6130400ba
:1004f00000000000fc18040000000000ea180400de
:1005000000000000be1004000000000008100400fd
:1005100000000000c4290400000000005816040078
:100520000000000078200400000000005e200400ad
:10053000000000008423040000000000623004007a
:10054000000000009423040000000000a423040025
:1005500000000000b4230400000000008e26040008
:10056000000000005a2b0400000000003c2404009e
:1005700000000000ac1b0400000000006a19040029
:10058000000000000010040000000000e829040042
:1005900000000000b419040000000000a0190400cd
:1005a00000000000f42a040000000000cc19040040
:1005b000000000009410040000000000d22b040092
:1005c00000000000d62b040000000000501a0400b8
:1005d00000000000862d040000000000a02d040093
:1005e00000000000141e040000000000061e0400ad
:1005f00000000000903004000000000032002000e5
:100600005e00370003f0a200889fbe008a9fbe00f4
:100610008c1f780030020700370233006450e1007d
:100620004f0032006420e1005200320003826c006f
:1006300007003b000905d0000306d000820f5400dc
:100640000c065d00020039000200320089017800ca
:10065000030678008582550004003d000003fd007c
:100660008103fd008502ea008b854200840f720041
:1006700002003b0060001000e08018006011b8002c
:100680000005eb007a28e1000a0039000600780036
:10069000c75ddd00f707b200878075002d003700c9
:1006a000828171000a017800610560008180d100bb
:1006b0000080d3008502e900f9ff3b0006044000fa
:1006c0008784480002003b0060041400e0841c00a2
:1006d0000988a300070032008a81710082817100bd
:1006e000610164008904d1000884d3008b05e8000f
:1006f000170037000978a30013003a000b00e00050
:10070000130034008b05e9000804440089844c0080
:100710000a4474000978a3000d003a000b00e000c1
:10072000070034008b05e9000804440089844c006c
:1007300001003a000b0020000978a300f7ff320007
:100740000001eb0002003700828171000a0178008d
:10075000a60107000cf0a70001f0a000ef01370090
:100760006420e10002003a00838f6c00ef01330047
:100770000801be000200be00e8013700889fbe00ed
:100780008a9fbe008c9fbe000206780001f0a70081
:100790000cf0a0000004be00ba0107000800be0073
:1007a0006420e1000700390002003a00f1ff270051
:1007b000f0ff2f000160a00012022000024088001c
:1007c0005100370009f0a1000800be00020020001f
:1007d00003f823005f010700f4ff3c000800be009f
:1007e0000200200003982300580107000800be0003
:1007f000300035000200200003f0230055010700ff
:1008000005003c000800be000801be0047020700ca
:100810000005be000e0037000c10a20000002000f2
:1008200001f823000801be0076ff07000200200047
:1008300003f023003d0207000005be00bd030700d2
:100840000200200003002c00380207000004be0054
:100850000a00be00b2d02800130b2c006aff07006c
:100860000a01be0031020700020f2500330b2400ed
:1008700065ff0700809fbe000a00be0052062200ee
:1008800013f02b0029020700b2662100f3f62300c3
:100890005dff07000a01be00240207004f01be00f1
:1008a000860007000801be00200207000801be0004
:1008b00055ff07000c00a70007003700b2fd20001d
:1008c00093fc23000c10a7004fff07000cf0a700bb
:1008d00001f0a2000c0037000cf0a7000200370066
:1008e00001f0a20004003700b2fd200093042400b0
:1008f0000c10a60003003700b2fd200093fc23007b
:100900000c10a70040ff07004f06be004f05be00b9
:100910004f04be00000006000001eb0097ff370007
:10092000889fbe008a9fbe008c9fbe000004be0050
:10093000540107000800be00890678006420e10029
:1009400008003900040032000160a00012022000fb
:10095000024088005300370091fc2300b0fd2000c6
:100960004e0037000006eb0009f0a10003f8230059
:10097000020020000800be00f4000700060034005a
:1009800001f82300000020000801be004b00070012
:100990000004be002c0020000800be0093e82300e5
:1009a000320a2300e9000700120034000801be00eb
:1009b000d1fd2300703d2b0013ff07000005be0092
:1009c000b3f32300f27a26000800be00d701070027
:1009d00003f82300020020000aff07000801be0000
:1009e00009ff07000a01be00340007000004be0032
:1009f0000c06e8000800be0001f0a1000200200083
:100a000003982300d10007000800be00160035003f
:100a10000801be00c50107000005be0032cd2c0054
:100a200043fb2300f8fe0700809fbe0012692800e8
:100a300003d52b000a00be00bc010700620f210095
:100a400013ef2b00f0fe07000a01be00b7010700fc
:100a50004f01be00190007000801be00b3010700e6
:100a60000801be00e8fe07000c00e0000b003200a9
:100a70000c10a70001f0a200b2fd200093fc23009f
:100a80006260e1000400320022a9200063f023002c
:100a90000c10a70063f82300dbfe07000df0a70091
:100aa00001f0a2004f06be004f05be004f04be007d
:100ab000000006000081eb00b3023700889fbe00f3
:100ac0008a9fbe008c1f7800030107000a013300d3
:100ad00003866c006450e1002e0032006420e100c7
:100ae000330032006150e1002f0032006120e1004c
:100af0003100320085855500eb07b0000900200069
:100b000008042000050037000804440089844c00d4
:100b10000a0031000603430087834b0000015300a5
:100b200081815b00f8ff33000203be000800a000d3
:100b30000804440089844c00f6ff3900c639dd0002
:100b40008301730001003200130020008904d100ea
:100b50000884d3000998a300050032000800a7000c
:100b60000300a0008904d1000884d3008b05e800ad
:100b70008904d1000884d3000001eb000281d20077
:100b80009a00070001f0a1000cf0a70001f0a000fe
:100b9000e20037006420e100e40032000801be00fa
:100ba0000200be00f7ff37006120e100df003200e5
:100bb0006000b800f3ff37000000200001f82700b4
:100bc000f0ff3700889fbe008a9fbe008c9fbe004a
:100bd0000004be00ab0007000800be006420e10076
:100be00048003e005500320072212700132b2400dc
:100bf0005800070047003c000800be00c2ec280077
:100c0000e32c2c0051000700470035000800be000f
:100c100001f0a10002002000033823004b00070070
:100c2000430035000800be00b2a32a0083fb230066
:100c30003e0107000200200003f0230001f0a7009e
:100c400003f0a00070fe0700440007000005be008e
:100c50006300070001f0a2000006be0002002800a9
:100c600013f32300310107000801be0066fe0700f0
:100c7000809fbe000c00be0032082800e3952b00c8
:100c80002a0107004f01be005ffe07000006be00fc
:100c90000001be0025010700809fbe0042412500e3
:100ca00083b82300210107000200200003e823008d
:100cb00055fe07000c01be001c0107000006be0027
:100cc0004f00be00f2f92b00c3d423001701070028
:100cd0000200200003f023004bfe07000c01be00c1
:100ce00048fe07000001be000c00be0073ff0700b5
:100cf0000200200003f0230043fe070061014500cd
:100d00008d0007004f06be004f05be004f04be0019
:100d10000000060001f82700000020002202200049
:100d200002408800f7ff37006000b800fbff370083
:100d300001f8230000002000f2ff370009f8a300ab
:100d4000f0ff32006000b800eeff37001400200012
:100d50003e033700f4ff2f003c0337000001be00c4
:100d6000480007000470a70003f0a1006509b10066
:100d7000160032000d0035006828e100060035003d
:100d8000f0ff2f00f1ff27000300e00013003b00fd
:100d9000010028000000050000004000818048009c
:100da0008502e900fcff3a0008003700f88f420096
:100db00002003c008000eb00000005008100d10033
:100dc0000080d3008502e800fcff3a000300e00049
:100dd00002003b0060001000e080180000000600e8
:100de0004f89de0082017800330337008100200044
:100df000618055000b003d000b00200061fe2f00bc
:100e00000100e1001d003400828171006101640075
:100e10008904d1000884d3000000e800faff3a00fa
:100e20007100200061006400030070000200600097
:100e30000900320061044400e0844c000988a500e8
:100e4000050032008b05e8006808e10002003a0066
:100e50008904d1000884d300f20f20000258e10079
:100e600005003d00c75ddd00f907b200898075000f
:100e700008007800000006000bf827008b007800bf
:100e800000000500c70ade00f107b200f50fb2004e
:100e900008003200e1cf4200020032000170a000e1
:100ea00024000500810f70000100320004080500d5
:100eb00044000500810f700002003a001400050094
:100ec0008502e9000000400081c04800fcff3b00b3
:100ed0000170a000240005000004be00e9ff070027
:100ee0000003be000405be000200be00e5ff0700cf
:100ef000844f7500000006000200be006450e1004f
:100f0000050036006420e100020036000968a300f5
:100f100001003a000800be000160a0004f06780002
:100f20004f05be004f04be0000000600f0ff2f007a
:100f3000f1ff2700f9ff37000003be00d1ff0700d3
:100f40006220e100020032000600be000000060040
:100f500085024100e30f20000328e10005003c006a
:100f6000a3fe2f000328e10007003d00050020003c
:100f700001003700f50f200020022000004088000b
:100f80006000b80008003700130020008381520081
:100f900005003d008100d1000080d3008301e800fe
:100fa000fcff3a0005002000c72add00f107b2006f
:100fb0008580700007f0a70001f0a0000000060087
:100fc0000300070092bd2500e3ed23005700370022
:100fd000889fbe008a9fbe008c9fbe0067020700ec
:100fe000850478000005be006420e10049003e0051
:100ff0006220e10003003200090035000bf8a30075
:10100000440032000bf8a300080032001002200058
:1010100000408800f0ff2f00f1ff27003d0037005f
:1010200001f82f00000020003a0037003d000700c3
:1010300074fd07000006be000a00be00324f20000b
:1010400053f3230043ff0700060034000c00be00ea
:10105000340007006bfd07000006be000a00be005a
:10106000020037008904e9000c00be002d000700d3
:101070002e0007002b00070063fd07000001be00e3
:101080000c00be008dfe07000005be000001be0082
:10109000260007000006be00a2f32300430d2c002b
:1010a00059fd0700809fbe000c00be00d2e3270060
:1010b000d3f02b001d0007004f01be007ffe07008c
:1010c0000006be000a01be00180007000a01be00ab
:1010d0004dfd07000006be006148b90040ff070053
:1010e0000005be0032082800e3952b000f00070022
:1010f0000c01be0044fd07000006be000a00be0051
:101100000200280013f32300080007000c01be00b2
:101110003dfd07004f06be004f05be004f04be0058
:101120000000060003f0230002000500889fbe00b7
:101130008a9fbe008c1f780067ff07006eff330098
:1011400003866c006450e100240032006420e1005a
:10115000270032006150e100220032006120e100ee
:10116000210032008b854200eb07b1000134b8004a
:10117000003ab8000804420089844a00013ab800e5
:101180000030b8008880400009014a0004003300a4
:101190000000400081804800020149008b05e90001
:1011a000c909dd0083017000010032001300200036
:1011b000c814de004814dd004709de001200b2004a
:1011c000c808de000884700008ff070001f0a100d5
:1011d0000cf0a70001f0a00050ff37006120e100f3
:1011e00052ff32000801be000200be00f7ff3700c8
:1011f0006150e100fcff3a004cff37000c00fa00a0
:10120000889fbe008a9fbe008c9fbe0032ff0700f1
:101210000206be00840578000200be000200200025
:10122000e301070005003a008b02b3001200200022
:10123000df01070001003a00f8856d000c01be00d7
:10124000c60007000800be009b0032000b08a30088
:101250009e003a000df0a7000be0a00009f0a700e7
:101260000bf0a00009f0a1000801be00bb000700c0
:101270000bf0a6009500320001003c000bd0a0004e
:101280008acf7500b20033006000b8006250e10000
:1012900099003900a1003e000b28a300a2003a00eb
:1012a0000bf8a300060032000b58a300a700320081
:1012b0000801be00a90007000800be00940032002b
:1012c0000800be00ad0107000004be00050578005f
:1012d0000bf0a7000b30a6000bf0a1005b079800f5
:1012e000324f200053f3230098fe070005003d0015
:1012f0000800be00120020000fff07000004be001f
:101300000a05e9004a0798006150b900b4fe0700d9
:10131000008fbe000c01be0084ff07008ffe070097
:10132000300798000100e00002003d00600010005e
:10133000e0801800f2ff2700820f5000e08f580075
:1013400064003e000c00be0084fe070020079800e9
:10135000f2072000820f5000e08f580005003c008b
:1013600012f82f00f3ff2f00820f5000838f5800d8
:1013700009003d000a00e0000300320001003c00cb
:101380000201ea00020578006000b800200798001a
:101390003a079800190037003e0090006100b9003c
:1013a0008ffe0700809fbe000c00be004109dd00db
:1013b0004811de007208b1007d0107000005be0083
:1013c0001e01be0059ff07004f01be008dfc070043
:1013d000809fbe000c00be000a01be0089fc070011
:1013e0001e01be0051ff07004f01be0086fc070032
:1013f0008221270013f323004cff07000005be00e5
:101400002e0090006100b90075fe070001f0a200f7
:101410000c01be007cfc07000006be000800be00f8
:10142000ebfe07000c01be0040ff07000a01be00f2
:1014300075fc0700809fbe004a0007002e05900043
:101440000af0a7000a05ea00050037000800be0000
:101450000801be0035ff07000004be000c00be00fe
:101460000801be000a00a70030ff07000006be000a
:101470000a05d100f5ff3a005e01900002e0a600e7
:10148000030037000001be00360007008bfd070097
:101490000004be004f00be00cafd07000801be00e8
:1014a00022ff07003e019000a3fe0700de0590002a
:1014b0000bf0a70001f0a2004f06be004f05be00d2
:1014c0004f04be000080fa0000000600250007005f
:1014d000f9ff3700270007006000b8000bd0a70015
:1014e0000bc0a0000be0a7000bc0a2000bc0a70020
:1014f00001f82700f0ff37000df8a30002003200ca
:101500001e000700190007000bf8a300eaff3200d5
:101510000b30a70001f0a200e7ff37000df8a30091
:10152000f9ff3a00f7ff37000801be000b00070083
:10153000e6ff320001003c000df0a2006000b800a0
:101540000df0a70009000700dbff37000b000700c4
:10155000f1ff2700f0ff2f00d7ff37000100070041
:10156000fafd370001f823000000050001f827000c
:1015700000000500200220000100370010022000ba
:101580000040880000000600889fbe008a9fbe00c1
:101590008c9fbe00820578000004be0039fe070063
:1015a0000800be006420e1000700390002003a0094
:1015b000f1ff2700f0ff2f000160a00012022000c1
:1015c00002408800550037006120e10003003a0026
:1015d0000b00a70001f823005000370001f0a10024
:1015e0000200210093642400d8fd07000800be001b
:1015f00004003500b2fd2000930c24006d010700ab
:101600000004be000005eb000b00a6004f0dde003d
:1016100001f0a1000004be0032982f0023ea23004d
:10162000c2fe07000001eb0003f023000b00a7003f
:1016300003f82300f4fb0700c8fd07000000a70023
:101640000a00a200e6fd07000b00e00003003200e4
:101650000200200003f02300eafb070001f0a200d3
:101660000006be000200200093042400affe070025
:101670000801be00e4fb0700809fbe000c00be0016
:1016800022a22a00d3a72300a8fe07004f01be0014
:10169000ddfb07000004be0001f0a10002002000f5
:1016a00003982300a9fd07000800be0019003500bb
:1016b0000001be009dfe07000006be00b2c5290065
:1016c000e362230099fe070022222b00f3942b00f3
:1016d000cdfb07000c01be0094fe0700e27328005a
:1016e00083c02300c8fb07000c01be008ffe07006b
:1016f00042aa2a00a3e22b00c3fb07000c01be0094
:101700008afe07000801be0088fe07000801be002f
:10171000bdfb07000a00a70001f0a2004f06be00b3
:101720004f05be004f04be00000006000001eb00a4
:1017300095ff3700889fbe008a9fbe008c1f7800ef
:101740000004be00cffd07000478a30026003a0085
:101750006120e1002500320009f8a30025003a00cd
:101760006420e10021003200f507b1000508a30064
:101770000200320000004000818048006044b80050
:10178000031020000200200000004000818048007b
:101790000805440089854c000a0541008b854900f5
:1017a0000a0550008b855800030033000a00be0074
:1017b00002047400838474008301d1000281d30089
:1017c000830f7100f0ff3a008904d1000884d30030
:1017d0006001490082017800c1adde00fb07b00066
:1017e00082fd0700cdfd37000960a0000800be00a3
:1017f000cafd37001202200002408800f0ff2f00cf
:10180000f1ff2700c5fd3700889fbe008a9fbe00fc
:101810000004be009bfd07000800be006420e1003c
:101820000700390002003a00f1ff2700f0ff2f0007
:101830000160a00012022000024088004c00370026
:1018400001f0a10002802000935c24003ffd07000e
:101850000800be0004003500b2fd200093042400ff
:10186000d40007000004be0032982f0023f22300aa
:101870002efe07000200200003f0230001f0a70065
:1018800003f0a00060fb070034fd0700801f780014
:1018900053fd070001f0a2000005be000200200079
:1018a00093fc230021fe07000801be0056fb070041
:1018b000809fbe000a00be0022a22a00d39f230000
:1018c0001afe07004f01be004ffb07000004be00d8
:1018d00001f0a10002002000039823001dfd070075
:1018e00003003d000000200001f82300180037002d
:1018f0000800be000001be000cfe07000005be008f
:10190000823b230043dc2b0008fe07000801be00d9
:1019100006fe07000801be003bfb07000004be00f6
:101920000a00be0052372300f3c12300fffd070069
:10193000f27a2b00b3ed2b0033fb07000a01be0047
:10194000fafd07000200200003f823002efb070029
:101950004f00a600030037000801be0003f0a200fc
:10196000020037000001be000800be0053fc070063
:101970004f05be004f04be00000006000003be007d
:1019800040fd07006220e100020032000600be00b8
:1019900005000500e507b100f107b20004f02300df
:1019a0008480700007f0a70001f0a000240005006b
:1019b000889fbe008a9fbe000003be0031fd070065
:1019c0008505780082815200020020006220e1003b
:1019d00004003a00f307b100040035007718e10075
:1019e000040035000600be00140037006000b80097
:1019f0000f003700f50f2000faff2f008502d100fd
:101a00000a85d3008301e900fcff3b00818462006a
:101a100000046500890f7400f2ff32008582ea003d
:101a20000a85ea008184620000046500effc07007b
:101a300007f0a70001f0a0000081eb000200e00029
:101a40004f05be004f04be0000000600889fbe0088
:101a50008a9fbe00841f78001ffd07004f0078009a
:101a600011003300f0ff2f00838f6c0006003b0055
:101a7000040565000a00a7000800370009f0a60069
:101a80001000200008003700820f5400838f5c0094
:101a9000030039001000200001003e00000020007b
:101aa00009f0a7000000ea004f05be004f04be0089
:101ab0000000e00000000600881f780003047800a2
:101ac0000300e00007003d0060001000e080180007
:101ad00060011900e081190002003b0001f02d00b7
:101ae000030037000400070008f0a70001f0a00081
:101af0004f04780000000600889fbe008a9fbe0049
:101b0000008270000402710004827100260032001d
:101b10000004be000200be006011b8006b09200086
:101b2000950220000182cf000a0039000541b10072
:101b30000082cf00070039000541b1000982cf00c3
:101b4000040039000541b1000882cf0001003900ce
:101b50000541b10005425200120032000a003b006c
:101b600082817100610164008100d1000080d30096
:101b70008984d3000884d3008b05e8000442e80080
:101b8000f7ff3a00070037000804440089844c003e
:101b900000004800818048008b05e9000442e9000c
:101ba000f9ff3a0091fc07004f05be004f04be004c
:101bb000000006000400200000003700889fbe00df
:101bc0008a9fbe008c1f78004f26dd00c2fc0700f4
:101bd000c9fc33006120e100430032006250e100a3
:101be00041003e003e0039006420e1003c0032002c
:101bf000058255000f003b000402e80038003a005f
:101c0000800f5300818f5b00350034000800be0058
:101c100003f0a10001f0a60003f0a0000cf0a70063
:101c200079fa0700bdfc37000603430087834b00a9
:101c30000c4646000005530081855b00020033001e
:101c40000a03be000c00a0000402e900f6ff3b00fe
:101c5000850578000602430087824b0004003a00a5
:101c60006000b80009f0a70001f0a000abfc37004d
:101c70000002520081825a000704e0000400330091
:101c80000603430087834b008b05e900faff37000a
:101c9000090578000604be000203be006011b8000a
:101ca00052fc0700e00f5200e08f5a000700350099
:101cb00002003c000c08a300040032000601be0034
:101cc00003f0a0000cf0a7004ffa07000a85680097
:101cd00001f0a1000af0a70001f0a0008ffc37007e
:101ce0000800be008dfc3700100220000cf0a6009a
:081cf000004088008dfc370064
:020000040000fa
:101cf8000800fa00008fbe002207980033079800fa
:101d08002e019000be0190001e00be003cfa0700a4
:101d18000080fa00000006000800fa00008fbe00ec
:101d280022079800330798002e019000be0190000a
:101d38001e00be0031fa07000080fa00000006000d
:101d48000800fa00008fbe002207980033079800a9
:101d58002e019000be0190001e00be00f1fc07009d
:101d68000080fa00000006000800fa00008fbe009c
:101d780022079800330798002e019000be019000ba
:101d88001e00be004bfb07000080fa0000000600a2
:101d98000400fa00008fbe001e00be0063fe0700ac
:101da8000080fa00000006000400fa00008fbe0060
:101db8001e00be005bfe07000080fa00000006005f
:101dc8000400fa00008fbe001e00be0037fb0700ab
:101dd8000080fa00000006000400fa00008fbe0030
:101de8001e00be0086fe07000080fa000000060004
:101df8000400fa00008fbe001e00be006ffb070043
:101e08000080fa00000006000800fa00008fbe00fb
:101e180022079800330798002e019000be01900019
:101e28001e00be00f3fc07000080fa000000060058
:101e38000400fa00008fbe001e00be005efc070012
:101e48000080fa00000006000400fa00008fbe00bf
:101e58001e00be005cfc07000080fa0000000600bf
:101e68000400fa00008fbe001e00be00aafa070098
:101e78000080fa00000006000400fa00008fbe008f
:101e88001e00be00a2fa07000080fa00000006004b
:101e98000400fa00008fbe001e00be00d5f907003e
:081ea8000080fa0000000600b2
:020000040000fa
:101eb00002080000e8080000000000000008000020
:0c1ec00002000000000000000000000014
:020000040000fa
:1020000000000000ea100000ac780000008c000026
:1020100000000000a6700000000000009e0f0000fd
:10202000fe0f0000a00f00000661000030610000fc
:10203000486100009e0f00000a00000060100000d0
:10204000d65b0000000000000004800010708800d3
:102050000000fe0081e0a8008460a900e42eec00ee
:1020600000a0fe00500880000a21ef00e02eb4001e
:102070000000eb00e2aeb400e44ee20008003a00db
:10208000021823001177800000778000e02eef0017
:10209000e22eef00110009004288d800f076880097
:1020a0000080fe000040060000a0fe000e87e80051
:1020b0008560a900da6ea8004c8ebf00520eb500f4
:1020c0001b003b002222a900301180006f00e100bc
:1020d000bc003200da4eaf00020037007300e100ae
:1020e0000e003200002f7800c00f2600002f78006d
:1020f000d9030700da4eaf000800370000022000c5
:10210000520ee30005003300da2eaf000300370063
:102110003001200020118800da2ea8002202af0032
:10212000e3ff3700620757000080fe000040060012
:102130002302ae00feff370030118000c0072000f0
:1021400020118800f5ff370000a0fe00620747005d
:102150008580a9002322af00f2ff37000a0ee200bb
:10216000f0ff3200a00e2600002f7800d8030700f1
:102170002e00780020118800eaff370083e0ae00cf
:10218000b1ff370000a0fe00000780008000d000f3
:10219000f10fb20060ef2000010140001200780052
:1021a00000400100c076800001c02f0001006000e7
:1021b000d60ee30001003a000000060024020700ea
:1021c000c076800001c02f0001006000b07688005a
:1021d0000000eb00150007000304200092d8ba00ad
:1021e0003218ba008301e900fcff3a000402e9005a
:1021f000f9ff3a00000006009e0207002322af000c
:10220000fdff37003201200022118800da2ea800dd
:10221000da6ea90062d62000da6eaf00fcff37004c
:102220000201e900fcff3a0000000600003b8800c4
:102230002080200021c02000b27680008400200091
:102240000209bb0000000600ebff07002004240089
:10225000f6ff07004902070010002400f3ff070003
:102260000304200031c9bb003019bb008301e90021
:10227000fcff3a00410207000402e900f8ff3a00bf
:102280000000eb00e9ff07000304200092c2ba003f
:10229000312ce1000a003a00b202ba003028e10015
:1022a00007003a008301e900f8ff3a000402e90060
:1022b000f5ff3a00da0ea900d6aeef0000000600e6
:1022c0000000fe0000000000c76c00006974000000
:1022d00065720000616c00002e00780080007800bc
:1022e0004400dd00cc08de000102b300002f7800be
:1022f000012f7800a901070000f0220081072000cb
:10230000002f7800012f7800a401070000000600cc
:1023100064590000a23e000061000000ae05780094
:10232000000006008a590000a26100003e00000083
:102330000b2f78000000060094590000846900000b
:10234000646c000065000000dbcea9000000060000
:102350009e5900008462000075730000790000003f
:10236000dbcea80000000600aa590000846c000023
:102370006f61000064000000de8ebf00002f780057
:1023800000000600b6590000856500006d70000071
:1023900074790000850b0700950b0700000006000c
:1023a000c459000084770000617200006d000000d5
:1023b000a7010700a50b0700a0002000002f780050
:1023c000110e07000000fe004427ef000ffa200066
:1023d00020a0ef000000eb00000778000c000900cf
:1023e000002f78000000eb004ee020000180240068
:1023f000001f78000170e100fdff3a00eeff2000b1
:10240000d6aeef00da2eef0060ef200001042000ce
:10241000e20b2100021878008100e900fdff3a007c
:1024200070a7ef0072a7ef0074a7ef006603070024
:10243000420307006d03070040030700103a8000c5
:10244000c880de007100b2006180500003003200dd
:102450006380500001003200040037009002200029
:10246000303a880042a7ae00feff37007167a9002e
:10247000c0ab290010088800000028002008880050
:1024800071a7a90000012a00900888009460a800a4
:102490002ca3ef002074200061c4b30072c5b30008
:1024a000014878000248780042c7a900b000200027
:1024b0002035880030c0b300cae6b70070a7a90075
:1024c00023e2a80021e2a8002062a8004005200025
:1024d000401188002342a8009560a8009580a800bc
:1024e00080802500002f780060f72000002f780002
:1024f000e0002000002f780044090700230b0700ac
:10250000ff0107002e007800f1ff2f000100e1001d
:10251000a0ff3200360b0700a0002000002f78003b
:10252000b90d0700024eaf00930307004f000000f3
:10253000028eaf00900307004d000000026eaf0056
:102540008d030700410000004027af008a03070009
:10255000420000004007af00870307005000000062
:102560004087af00840307005700000040c7af005a
:10257000810307005300000040e7af007e0307001f
:1025800045000000022eef004027ef00d8060700ac
:1025900017200000466c00006173000068460000d0
:1025a0006f72000074680000205000004943000072
:1025b00033330000203500002e3000000d0a0000eb
:1025c000be06070010012000002f78007d020700e2
:1025d0001a0007002e00e00012003200c4060700b7
:1025e0000345000053430000b406070000802000ac
:1025f000002f7800840d07007f0207002e00e00006
:102600000600320075020700b0012000002f78009c
:10261000f90607001e00e000020032000700070074
:1026200033030700580b3700d259000087740000ad
:10263000757200006e6b00006579000000050700f0
:10264000e60e0000165b000085700000617500005a
:10265000736500000060fe0000002c00da0eb6007a
:1026600004003a00e0f920007c0fe30001003a008a
:102670000140fe00e07b80003eb89f002fb89f0025
:102680004db89f0050b097000700fc0020a0ef005d
:10269000e07b8800c0be9700a0bf970080b0970085
:1026a0000101880030bf970000000600245b000095
:1026b000a3630000776400000060fe0000000600d5
:1026c000585b0000846900006e7400002100000067
:1026d00060ef2000ae0078008100d00001004000d3
:1026e000018024002e01780081005100010878004b
:1026f00000000600625b0000a36900007674000021
:1027000083e0a900000006007c5b0000a4610000db
:10271000697600007400000083e0a8000000060055
:10272000865b0000b25b0000690000008d1f78002e
:102730003600f8006207470000000600925b0000c8
:10274000b26900005d000000620757003600f90022
:10275000cf06780000000600a05b0000b264000015
:10276000690000004200f80000ceb3004260b700ec
:1027700000000600ae5b0000b265000069000000ca
:102780004200f90000000600bc5b0000886f0000fa
:102790007065000072610000746f0000720000003c
:1027a000b419020000000000d65b00009e0f00007c
:1027b00000600000608a0000c65b000086720000b6
:1027c000636100006c6c00002c0000001e8fd100c3
:1027d00070002000002f7800700007000000060045
:1027e000de5b0000877200006574000075720000f7
:1027f0006e2c0000300e070060002000002f7800d3
:102800006600070000000600f25b0000877200000f
:102810006574000066690000652c0000000024005b
:10282000002f780060002000002f78005b00070078
:1028300000000600065c0000846200007261000077
:102840002c0000001e8fd100fd02070000032000b5
:10285000002f78005d03070050000700000006000d
:102860001c5c00008361000073300000f40207006c
:102870009e1f780080002000002f78009c06070033
:10288000230307004f2f780070002000002f7800ee
:1028900048030700d0002000002f78006e010700d9
:1028a0004a03070000000600325c00008562000059
:1028b000636c0000722c0000ecff0700900a2000ff
:1028c000002f78003500070000000600565c00006d
:1028d0008562000073650000742c0000e3ff0700b0
:1028e000800a2000002f78002c000700000006005e
:1028f000685c00008562000074730000742c0000a6
:10290000daff0700b00a2000002f7800230007003c
:10291000000006007a5c000085620000747300000d
:10292000632c0000d1ff0700f00a2000002f780080
:102930001a000700000006008c5c000085620000a1
:1029400074730000732c0000c8ff0700e00a200029
:10295000002f780011000700000006009e5c0000b8
:102960008363000066210000b5020700ae01780015
:102970003f00070000000600b05c00008363000019
:1029800066400000de000700032f7800000006000c
:10299000be5c000083610000732c00002e007800f4
:1029a0000a00e1000e003a008a07b1000c003a006c
:1029b0009e007800e20220000208e10008003a00d0
:1029c00002f022000c10e10005003a0062075700f7
:1029d000ef0b07000c0020000a0020000700370062
:1029e00080017800000578001e067800a40a070020
:1029f0001f000700bb040700c40c0700000006000e
:102a0000826900002c0000009d0a0700a800070052
:102a1000b4040700bd0c070000000600ca5c0000fb
:102a200083630000662c0000950a0700d0020700af
:102a30001e8fe90065ff070000000600105d000022
:102a400086690000666c0000757300006800000075
:102a5000da0eaf00fcfd3700000006001d00070085
:102a60008001eb0009000700014878000000060023
:102a70002e007800010037008001eb0015000700f0
:102a80000200070001087800000006000180240011
:102a900001005000c0768800831f7800c1fd070048
:102aa000cf017800c0768000f13f20000101600076
:102ab0004110de0021c02000008040000348780063
:102ac0002180200001004100ae007800da0ea8004d
:102ad0000000060001c028000100e10001003900eb
:102ae000000006008060a800104fba000000060039
:102af0001b0007000208e100fbff3a00f13f200045
:102b0000008060002180200000804000104f78008d
:102b1000000006008001eb0090c1ba00100fba005f
:102b2000000006000e0007000208e100f9ff3a006d
:102b3000f13f20000080600000017800218020002b
:102b400080804000110f78004110de0021c020007d
:102b5000008040008001eb009041780000000600fa
:102b60000180240001005000b176800002c02f00d7
:102b70000001610000000600013b88000500fc0028
:102b800053052000333b8800a30a2000333b880014
:102b900061e7a800000000000000000061e7af004e
:102ba000feff3700000006001e00780001802400b0
:102bb000010050000140200001004000c000ba00a8
:102bc0008100e800fdff32008100e900010f78007c
:102bd000000006002700070015000700000037006e
:102be00085fd07001e0078000180240001005000d0
:102bf00002202000b000ba008100e80003003a0083
:102c00000080e9000e87e900040037000201e900b6
:102c1000f8ff3a00060007002e007800310024007b
:102c2000013b88002e08bb00d4ff0700000006000f
:102c300020042400003b88001e007800018024004e
:102c4000010050000008bb00ccff3700205d0000f1
:102c5000836600006c2b0000db2ea900000006003c
:102c6000285e0000836600006c2d0000db2ea800ab
:102c700000000600db2eae00000006008060a80009
:102c8000325e000083750000312b0000da4ea9008f
:102c900000000600425e000083750000312d000038
:102ca000da4ea800000006004c5e00008121000002
:102cb0002e007800018024000100e10002003100b4
:102cc0002e087800000006006bff3700565e0000fb
:102cd00082630000210000002e00780001802400a3
:102ce0000100e100030031001e4878002e0078004a
:102cf0000000060059ff3700685e000081400000b8
:102d00001e007800018024000100e1000200310073
:102d1000100f78000000060082ff37007e5e000082
:102d200082630000400000001e007800000feb00ee
:102d3000018024000100e10002003100104f780002
:102d4000000006006aff3700905e0000846d0000fe
:102d500073650000740000002e007800ae0078005b
:102d60001088700000000600a65e0000846d000060
:102d7000636c0000720000002e007800ae80ea0054
:102d80001088600000000600b65e0000846d000040
:102d900074730000740000002e007800ae0078000c
:102da00010806000002f780000000600c65e000062
:102db0008462000073650000740000002e0078003b
:102dc000ae0078004301de00810041000100a10057
:102dd0004200a8001100ad0000000600d85e00000f
:102de00084620000636c0000720000002e00780016
:102df000ae0078004301de00810041000100a10027
:102e00004200a9001100ad0000000600f05e0000c5
:102e10008462000074730000740000002e007800cb
:102e2000ae0078004301de00810041000100a100f6
:102e30001100a5008180d3004f88de00002f7800ac
:102e400000000600085f0000866c00007368000048
:102e500069660000740000002e007800ae00780063
:102e60000008dd00002f780000000600245f00004d
:102e7000867200007368000069660000740000003c
:102e80002e007800ae0078000008de00002f7800e9
:102e900000000600385f0000826e00003d00000068
:102ea000ae0178002e0278009e027800040f7800b0
:102eb0009dff07001e007800f000b2000304e1004f
:102ec0000d003a000402e8008502e800040f7800d3
:102ed00095ff0700052f780093ff07002e0078006c
:102ee0001e04e10004003a008301e900f5ff3a0006
:102ef000000feb0000000600008feb000000060052
:102f00004c5f0000847300006b69000070000000db
:102f1000ae0178002e027800ae0278000400e000d6
:102f20000b003200052f78007fff07002e0078008d
:102f30006904e10003003200001ce10001003200de
:102f4000030037008502e8000402e900f5ff3a00bb
:102f5000052f7800042f780000000600825f000033
:102f600084730000636100006e000000ae01780011
:102f70002e027800ae0278000400e0000a00320061
:102f8000052f780068ff07002e0078006904e10033
:102f9000050032000304e100030032008502e8006e
:102fa0000402e900f6ff3a00052f7800042f7800ac
:102fb00000000600b05f0000846500006d6900003d
:102fc00074000000130007008619040000000000d0
:102fd000dc5f0000836b00006579000013000700d0
:102fe0008619040000000000ea5f0000846b000006
:102ff000657900003f0000001200070086190400f8
:1030000000000000f65f000085270000656d0000ed
:10301000697400007d020700e4ff00000460000006
:10302000842700006b65000079000000770207002c
:10303000e6ff000010600000852700006b650000bf
:10304000793f000071020700e8ff00001c600000eb
:10305000833e00006371000029ff07002e00780006
:103060000b00fc00900090009e587800620757000b
:1030700010014000680141000110e10001003b0027
:10308000e800400011009800660040001008e800c9
:103090000000060028600000843e0000637100000c
:1030a0003f00000016ff07001e0078000200fc0031
:1030b000b000900090805000cf88de00010f7800b3
:1030c000000006004c60000083630000713e0000b9
:1030d0000bff07001e007800000feb0010014000fe
:1030e000680141000900fc00a0009000314f780009
:1030f0000110e10001003b00e800400021009800c1
:10310000660040001008e90000000600646000004e
:1031100084630000713e00003f000000f8fe0700dd
:103120001e007800b0009000010f7800000006003b
:1031300088600000836300007130000056060700bd
:10314000bf000700eefe07002e0178000281e900b3
:10315000ae0078000500fc0082087800688040001e
:1031600080287800802878008028eb000000060086
:103170009a60000083630000713a0000a602070015
:10318000cf080700810a0700c50207003e0f78003c
:103190001e0fe900c202070080002000002f780007
:1031a000db000700a2020700df0a07000e09070084
:1031b0007900070000000600ba600000a575000055
:1031c0003174000078710000a00e2600002f7800f6
:1031d00000000600040e00003f000000de6000005a
:1031e000a57500003172000078710000c00f260044
:1031f000002f7800000006004c0e00007f00000049
:10320000f06000008374000078310000dbeea8005d
:1032100010fd07000b0007002e00e000fbff32004e
:10322000dbeea900e8ff07008bff07008580a80000
:103230000000060002610000847400007831000084
:103240003f000000a00e2600002f78005218040056
:10325000000000001c610000837200007831000053
:10326000fcfc07000a0007002e00e000fcff320013
:10327000c00f2600002f780095ff07000000060011
:103280002c61000084720000783100003f000000d3
:10329000c00f2600002f7800a0ff07001e00e000ee
:1032a00008003a00da4eaf0006003700da2eab0015
:1032b00004003200da2ea90010012000002f78004f
:1032c000d2ff07000000060042610000a364000076
:1032d000757000003e0f7800000006006661000077
:1032e0008765000078650000637500007465000064
:1032f0002e007800018024000100500000400100f1
:103300007061000083400000657800007cfe0700cb
:103310002e007800018024000100500000400100d0
:10332000826100009465000078690000740000006c
:103330004f00b10000000600932800002c29000077
:10334000cf0078004f007800302fba00801f78003f
:10335000811f780014150400000000009261000035
:1033600093280000632900006fb89700102fba005f
:103370004f00b100000006006fb89700302fba0070
:10338000e0bf9f00e217040000000000b0610000f1
:1033900093280000642900004f0078004f00780057
:1033a000cf007800cf007800112fba000040010054
:1033b000c861000083730000702100001e077800c0
:1033c00000000600da610000837300007040000016
:1033d0000e2f780000000600e461000083720000f8
:1033e000704000000f80e90000afe9000000060017
:1033f000ee61000093720000703000004f00780012
:103400004f2f7800f40907003dfe0700ae07780053
:103410002e00780000400100fa610000a464000062
:10342000726f000070000000620757000000060085
:103430000e620000a47300007761000070000000bd
:103440002e0078003e0f780070bf9f00000006003d
:103450001a620000a46f0000766500007200000090
:103460007eb89700002f7800000006002a62000056
:10347000837200006f7400006eb89700feb897006a
:103480001e01780061bf9f0072bf9f00000f78008f
:103490000000060038620000b23e0000720000002a
:1034a000ae1f7800000006004c620000b2720000ff
:1034b0003e0000004f2f780000000600566200001a
:1034c000b2720000400000007fb89700002f780023
:1034d000000006006062000083610000627300006b
:1034e0003e0f7800d7030700000006006c62000062
:1034f0008464000061620000730000003e0f7800e9
:10350000481b04000000000078620000a12b0000ae
:103510002e0078001e0f40000000060086620000aa
:10352000826d00002b0000002e0078008080eb00f0
:1035300000f0a6008000eb004e1f40001e8f4800e8
:103540000000060090620000826400002b00000072
:103550002e007800ae0078002e0178001e9f4000fb
:10356000020f480000000600a4620000a12d000028
:103570002e0078009e007800008f500000000600aa
:10358000b6620000826400002d0000002e0078006a
:10359000ae0078002e0178009e017800019f510056
:1035a000000f590000000600c2620000a361000085
:1035b0006e6400002e0078001e0f60000000060000
:1035c000d6620000a26f0000720000002e0078009a
:1035d0001e0f700000000600e2620000a3780000e9
:1035e0006f7200002e0078001e0f680000000600b9
:1035f000ee620000a66900006e76000065720000b1
:10360000740000001e8fea0000000600fa6200004d
:10361000a7640000696e0000766500007274000007
:103620001e97ea001e9fea000000060008630000e3
:10363000a66e000065670000617400006500000070
:103640001e0fea00000006001863000087640000f7
:103650006e650000676100007465000078ff070078
:103660001e8fea0076ff07001e8fea002f02070078
:10367000941a04000000000026630000883f000048
:10368000646e000065670000617400006500000062
:10369000400007002e00e00001003200efff0700ad
:1036a000000006003e630000a23100002b00000075
:1036b0001e0fe8000000060054630000a232000064
:1036c0002b0000001e8fe800000006005e63000073
:1036d000a23100002d0000001e0fe90000000600ce
:1036e00068630000a23200002d0000001e8fe90078
:1036f0000000060072630000a23200002a000000f1
:103700001e0fd000000006007c630000a3640000d0
:10371000322a00004e0fd0005e8fd200000006005b
:1037200086630000a23200002f0000001e8fd1002f
:103730000000060092630000a3640000322f000026
:103740001e97d1001e9fd300000006009c6300005e
:10375000823000003d0000001e00e0000f003a0033
:10376000008feb0000000600a863000083640000e7
:10377000303d00002e0078001e0f700007003a0058
:10378000b01b040000000000b6630000823000009f
:103790003c0000001e00e000f1ff3300000feb00d2
:1037a00000000600c663000083640000303c000097
:1037b0002e00e000eaff3300ce1b040000000000f2
:1037c000d4630000a221000070000000ae06780063
:1037d00000000600e2630000b4210000703e00001b
:1037e000720000008d1f7800ae0678000000060011
:1037f000ec630000b37200003e700000cf0678005a
:1038000000000600fa630000a24000007000000003
:103810000d2f780000000600046400008270000094
:10382000400000000d2f780080160400000000000a
:103830000e64000083700000634000000d2f7800cc
:1038400094160400000000001a640000827000005a
:10385000210000000d2f7800581604000000000021
:103860002664000083700000632100000d2f7800a3
:103870006c1604000000000032640000a27000001a
:103880002b0000008d06e800000006003e640000ea
:10389000a3700000322b00008d86e80000000600b7
:1038a00048640000a37000002b2b00002e0078005d
:1038b0008d06400000000600526400008373000083
:1038c0003e6400003e0f7800ca1b040000000000a8
:1038d0005e640000837500006d2a00002e007800f1
:1038e0001e01b800021f7800030f780000000600d8
:1038f0006a640000826d00002a0000002e0078003b
:103900001e81b900021f7800030f78000000060036
:103910007a640000867500006d2f00006d6f000056
:10392000640000002e017800ae0078002e007800c0
:10393000110009004288d800012f7800002f78007c
:10394000000006008a640000867300006d2f0000ee
:10395000726500006d0000002e017800ae00780056
:103960002e007800110009004208d800012f7800cd
:10397000002f780000000600a46400008575000098
:103980002f6d00006f6400002e0178002e0078007b
:10399000110009000280d800012f7800002f780064
:1039a00000000600be640000842f00006d6f000060
:1039b000640000002e0178002e007800110009003c
:1039c0000200d800012f7800002f780000000600c8
:1039d000d4640000836d00006f6400002e01780045
:1039e0002e007800110009000200d800012f780095
:1039f00000000600ea6400008475000073650000a2
:103a00007200000051000700f70607004f00780021
:103a10004f0078001000ba007c0fb400002f78002f
:103a200000000600fc64000085760000616c000068
:103a300075650000a206070099000700ea06070066
:103a400055fe070080160400000000001465000009
:103a50008564000065660000657200009806070036
:103a6000401c2700002f78008d000700de060700ad
:103a700049fe0700861904000000000028650000c8
:103a8000c269000073000000640607001e8fe80092
:103a90009bfc0700360807002e00e00004003200ff
:103aa0000dfa070026fe0700585e000001003700ef
:103ab0007ffc07000000060040650000c2740000a3
:103ac0006f000000441d0400000000005e6500005f
:103ad000a53e0000626f0000647900001e8fe800c0
:103ae0000000060068650000887600006172000032
:103af00069610000626c000065000000630007005f
:103b00007800070088080700be1d040000000000c0
:103b1000746500008932000076610000726900005f
:103b2000616200006c650000580007004000200042
:103b3000002f78007c080700be1d04000000000074
:103b40008a650000836300006f3a00005c0607008e
:103b5000640007001e0fea006c080700041504004b
:103b600000000000a2650000886300006f6e000086
:103b700073740000616e000074000000bd06070051
:103b8000d5f907005a2b040000000000b4650000be
:103b900089320000636f00006e73000074610000e2
:103ba0006e74000026fe0700b2060700caf907007f
:103bb000c9f907005a2b040000000000c865000086
:103bc000a3700000666c000000802400002f7800c5
:103bd00000000600e0650000a33e000078610000e0
:103be000008024009e007800008f50000000060036
:103bf000ec650000a3780000613e00000080240016
:103c00001e0f400000000600fa65000085660000f7
:103c10006c6100007368000040002000b07b8800e9
:103c2000000006000666000083720000616d00005f
:103c3000762fef000000060083630000736500002c
:103c4000b07b8000002f7800000006008369000030
:103c500064700000c4fd0700ec0e00001466000054
:103c6000826400007000000080ee2000002f7800c9
:103c7000f3ff0700881a040000000000306600000f
:103c8000846800006572000065000000f6ff070010
:103c9000801604000000000040660000812c000037
:103ca000faff070002fc07000e000700942e040034
:103cb000000000004e660000826300002c0000003f
:103cc000f2ff070004fc070098000700942e040090
:103cd000000000005c660000a4630000656c00004a
:103ce0006c00000020002000002f7800000006007b
:103cf0006c660000856100006c690000676e000062
:103d0000e2ff070008000700d7ff0700581604006d
:103d1000000000007a660000876100006c69000006
:103d2000676e0000656400001e0fe800e0ff2f00d2
:103d3000002f7800da1a0400000000008c660000f2
:103d4000a5630000656c00006c2b00001e8fe8006e
:103d500000000600a0660000a5630000656c00007e
:103d60006c7300001e0fd00000000600ac6600005f
:103d7000a563000068610000722b00001e0fe800c0
:103d800000000600b8660000a5630000686100003e
:103d90007273000000000600c0ff2f00002f7800a3
:103da000862e040000000000c4660000823200007d
:103db000400000003e0f7800d1fb0700a0fd070087
:103dc0001e8fe8008016040000000000d666000088
:103dd000823200002100000099fd0700a0fd0700cd
:103de0001e8fe800b2fb0700581604000000000018
:103df000e8660000a5320000647200006f700000e9
:103e00006407570000000600fa66000084320000d4
:103e1000647500007000000091fd0700301a040076
:103e20000000000006670000853200007377000084
:103e30006170000090fd0700ae1f78008efd070046
:103e40004f2f780000000600066700008263000024
:103e500072000000d0002000002f780059fc0700fd
:103e6000a0002000002f7800e217040000000000ee
:103e70002667000085730000706100006365000024
:103e800034070700e2170400000000003a67000052
:103e9000867300007061000063650000730000001d
:103ea0001e00e00003003200f5ff07001e0fe900ce
:103eb000fbff37006207570000000600486700005c
:103ec000847500006d6900006e000000d2ff0700dd
:103ed000fb0007002e00e0000100320058fd070043
:103ee000620757000000060060670000847500004c
:103ef0006d61000078000000c7ff0700e9000700bf
:103f00002e00e000010032004dfd0700620757005f
:103f10000000060076670000a1300000002feb00d3
:103f2000000006008c670000a13100001000200096
:103f3000002f7800000006009467000086610000f2
:103f400063630000657000007400000044fd07001a
:103f50006ffd070042fd070020fc07001e007800ef
:103f60006d00e10005003a0062075700580807009d
:103f70002e00070058fb0700260037006a00e1000a
:103f800009003a00620757002800070066fb070097
:103f9000040607001f00320047080700230007003f
:103fa0004dfb0700ecff37003e0f780005fc0700d3
:103fb000410807001d00070047fb07003e0f78007f
:103fc00080002000002f7800910007002e00e00004
:103fd00007003200620757001e0fe900ae1f78008d
:103fe0001ffd07004f2f7800c3ff0700daff3700df
:103ff0001bfd070038fb07001e0fe80018fd070037
:10400000b2ff070084ff07007b0007002e00e000de
:10401000d1ff3a002e0f780009fd0700b81a0400fe
:1040200000000000836600006372000077fe070056
:10403000f2ff00009e670000832e0000696400000c
:104040008c020700f0002000002f780059fd0700c7
:10405000ae1f780003003700860207000900070042
:10406000d8fb0700cf1fe900fbff31004f007800ad
:1040700062075700000006001c680000833e000035
:10408000707200003e0f7800b2060700f0072000b3
:10409000002f78004e0007002e00e00002003a00da
:1040a000e0022000000f7800000006003e680000db
:1040b000847400007970000065000000ae1f780075
:1040c000020037006b020700befb0700cf1fe900ac
:1040d000fcff31004f007800620757000000060027
:1040e00058680000842800007322000029000000a6
:1040f0004f0078004f2f7800008024001e0f4000f2
:104100005c02070044ff070001fd070006ff0700ef
:104110002e007800018024000100500000400100c2
:1041200072680000d27300002200000084fc0700c7
:1041300078680000b8fe070005000700181e04009c
:104140000000000092680000822c000022000000a5
:1041500020022000002f7800d0010700cbfe0700ce
:10416000bffc070052fd0700effe0700ee06070048
:104170002825040000000000a4680000d22e0000e2
:1041800022000000e9ff07006dfc07005e680000e8
:1041900000000600be680000822b00002100000025
:1041a000a7fc0700aefc0700d5fa0700d8fc070003
:1041b000a3fc07005816040000000000cc680000b3
:1041c0008677000069740000686900006e000000d6
:1041d000a3fc0700e6fc0700ae1f7800e4fc070024
:1041e0004f2f78005221040000000000e06800001a
:1041f000823c00003e0000002e0078001e00e1001e
:1042000057fd3a0065fd3700f8680000813d000069
:104210002e0078001e00e10051fd32005ffd3700e6
:1042200006690000826400003d000000d7fc070022
:10423000ba1b04000000000012690000813c00006d
:104240002e0078001e00e10045fd3c0053fd3700c4
:104250001e690000826400003c000000cbfc0700e7
:10426000d81b0400000000002a690000813e000005
:104270002e0078001e00e10039fd350047fd3700b3
:1042800036690000826400003e000000e9fe07007d
:104290002e21040000000000426900008275000029
:1042a0003c0000002e0078001e00e1002cfd3e00c6
:1042b0003afd37004e690000827500003e000000a4
:1042c0002e0078001e00e10025fd390033fd370087
:1042d0005c690000812a000080fd0700620757002a
:1042e000000006006a690000827500002f000000cf
:1042f000a5fd07002e0f780000000600746900007d
:10430000867500002a2f00006d6f00006400000019
:10431000ae1f780071fd07004f2f7800921c04003b
:104320000000000080690000852a00002f6d000059
:104330006f640000ae1f780070fd07004f2f7800fb
:10434000ac1c04000000000094690000822a0000f8
:104350002f000000ae1f780068fd07004f2f780087
:104360007dfd07002e0f780000000600a669000002
:10437000812f00002e0178002e0078001100090026
:104380000200d800002f780000000600b869000085
:1043900083750000642a0000cefb0700ae1f780082
:1043a0004efd070020fc070025fc07004f2f78007a
:1043b0004afd070030fc0700881a040000000000d6
:1043c000c869000086750000642f00006d6f000052
:1043d00064000000ae1f7800370707007fb8970021
:1043e000002f78004ffd070023fc070022fc070088
:1043f0004f2f78004bfd07003c1a0400000000001e
:10440000e2690000a36e0000697000002e0f7800c2
:1044100000000600026a000084740000756300005a
:104420006b00000006fc0700301a040000000000ca
:104430000c6a0000873f00006e65000067610000a5
:1044400074650000d3fc07002e00e000010032007c
:104450001e0fea00000006001a6a0000836d0000cb
:10446000617800006cfe070075ff07002e00e00079
:1044700001003200f2fb070062075700000006004f
:104480002e6a0000836d0000696e000062fe070066
:1044900077ff07002e00e00001003200e8fb070074
:1044a0006207570000000600426a000082750000a3
:1044b00070000000acfb07007c0f0000566a000093
:1044c000846800006f6c00006400000000070700b3
:1044d000c400070032ff0700c200070008fa070007
:1044e0006c16040000000000606a0000823c0000be
:1044f00023000000c0000700ba000700581604009f
:1045000000000000766a0000863e0000646900003a
:1045100067690000740000003e0f780090002000e2
:10452000002f780052ff070070022000002f780053
:1045300020fc0700f6fb070000032000002f780096
:10454000881a040000000000846a00008123000033
:10455000b1000700eaf907009eff0700c6fb07004d
:10456000edff07006622040000000000a66a0000bc
:104570008223000073000000f5ff070026fe0700fd
:1045800012fc07002e00e000fbff3a0000000600ce
:10459000b86a0000822300003e0000006407570054
:1045a00090000700d6f9070093000700acfb070056
:1045b000b81a040000000000ca6a000084730000fa
:1045c000696700006e00000072fc07002e00e0002a
:1045d00003003200d0022000002f7800bbff07004c
:1045e00000000600de6a0000827500002e00000058
:1045f000c0ff0700b0060700dfff0700e7ff070066
:10460000aefe0700401f040000000000f46a000036
:10461000837500002e720000b6ff07001e0fe90030
:10462000ae1f7800a406070001003700c8ff07008e
:10463000cf1fe900fdff31004f007800ceff0700db
:10464000d6ff07009dfe0700401f04000000000089
:10465000086b0000812e0000a6ff07003e0f7800c7
:104660009ffb070094060700c3ff070082fb0700bb
:10467000d5ff0700c9ff070090fe0700401f040098
:10468000000000002a6b000083750000642e00000b
:1046900098ff0700b8ff0700c0ff070087fe07006c
:1046a000401f040000000000446b00008264000012
:1046b0002e0000008fff07009e1f78008ffb070071
:1046c000adff07004f2f7800bfff0700b3ff0700c3
:1046d0007afe0700401f040000000000566b000037
:1046e000826800006900000040b82600002f7800b2
:1046f000201e020000000000881a020000000000d6
:104700008016040000000000ff470000ffff0000cb
:10471000ffff0000706b000087640000656300000d
:10472000696d0000616c0000a0002000002f78007f
:104730003900070058160400000000008c6b0000d0
:10474000836800006578000000012000002f7800d9
:10475000310007005816040000000000a06b0000a4
:1047600083620000696e00005efd07002a000700fa
:104770005816040000000000b06b000085750000b2
:104780006c6900006e6b0000a0fc0700eaff0000ef
:10479000be6b00008572000073610000766500004a
:1047a0009afc0700f4ff0000ca6b0000857300004c
:1047b000736100007665000094fc0700f6ff0000be
:1047c000d66b000084740000617300006b00000071
:1047d0008efc0700f0ff0000e26b00008268000022
:1047e0007000000089fc070000000000ee6b000074
:1047f0008370000061640000a001070095010700bc
:10480000881a040000000000f86b000084620000b9
:1048100061730000650000007cfc0700ecff0000f5
:10482000066c0000867300006f7500007263000064
:1048300065000000a3010700da1e0400000000006c
:10484000126c0000872f0000737400007269000072
:104850006e670000fafa070001fb070044fb07003f
:10486000ae1f78002afb07004f2f780000000600db
:10487000226c0000c15c0000eeff07008a01070007
:104880000bf9070062075700000006003a6c0000b1
:104890008570000061720000736500003e0f7800b3
:1048a000e4ff07008001070015f90700e9ff070092
:1048b0003e0f7800ae1f7800effa070094f907006a
:1048c000e7fa0700ae1f7800ebfa0700a7f9070028
:1048d0001e00e000010032001e0fe9004f2f78009b
:1048e0004f2f7800e4fa070021fb07006e01070054
:1048f0002bfe0700cbfe0700b81a040000000000e2
:10490000486c0000847700006f72000064000000b3
:10491000e2ff0700cafa07006ffb0700c1fe0700ad
:104920006c16040000000000826c00008565000029
:10493000726100007365000000002000002f780005
:10494000be24040000000000966c00008662000097
:104950006c6100006e6b000073000000000220001c
:10496000002f7800be24040000000000a66c0000a8
:1049700084660000696c00006c0000008d1f7800e8
:10498000ae007800ae1f78009e067800010f780018
:10499000030037003e0f7800b4fb07008d06e800e7
:1049a000cf1fe900fbff31004f007800cf067800f1
:1049b0006207570000000600b86c00008563000025
:1049c0006d6f0000766500008d1f7800ae1f7800c7
:1049d000ae0678000300370026000700a3fb07009f
:1049e0008d06e800cf1fe900fbff31004f00780083
:1049f000cf0678006207570000000600de6c00005a
:104a0000857700006d6f0000766500008d1f7800cf
:104a1000ae1f7800ae067800030037001e000700c6
:104a20008cfb07008d86e800cf1fe900fbff3100fb
:104a30004f007800cf06780062075700000006009c
:104a4000006d0000857000006c610000636500006f
:104a5000f1fc0700a0f807001e0fe80078fa070035
:104a6000e424040000000000226d000083630000c5
:104a7000402b00003e0f7800abf807007eb897008f
:104a80000000e80070bf9f0000000600366d0000c7
:104a9000824000002b0000003e0f780098f80700cd
:104aa0007eb897000080e80070bf9f0000000600fd
:104ab000486d0000836e00003e630000edff0700bc
:104ac000f0002000002f7800bafa070090fa0700e3
:104ad0001e0fe800e0ff2f00002f7800da1a040014
:104ae000000000005a6d0000836300003e6e00006d
:104af0001e0fe9001e0fe9003e0f78008af807003c
:104b0000f0072000002f7800d9fd07002e00e000fc
:104b1000f8ff320000000600746d000083280000da
:104b200066290000bcfc07004dfa07007ef807006c
:104b3000dbf807001e00e0000500320062075700a6
:104b4000eafa07006ef807001e00a1003e0f780089
:104b50002e00e000f3ff3a001e00e00008003200e3
:104b60002e0f78003e0f7800d4ff070034fa0700bc
:104b70000a000700f8fa0700ecfc070093fa0700a8
:104b8000b4f60700000006008e6d00008669000084
:104b90006d6d0000656400003f00000062f80700d2
:104ba00000842400002f7800da1a040000000000be
:104bb000c66d000084660000696e0000640000009d
:104bc00020862700002f7800d6ff07001e00e00097
:104bd00004003a0062075700f503070048f8070091
:104be000d0ff070000000600da6d000086640000b8
:104bf00069670000697400003f0000003e0f780004
:104c000090032000002f780099fd07002e00e0009f
:104c10000300320070022000002f780054fa0700d1
:104c200000032000002f780051fa07003e0f7800a3
:104c3000f9fe070032f8070081fd070008fa0700b7
:104c4000d4fa07001e8fea00da1a04000000000000
:104c5000f66d000085730000696700006e3f00007c
:104c6000fff9070030f80700c0022000002f78008d
:104c70003ffa07003e0f780019fa0700abfc070067
:104c800063fd07004bfa07001e00e000050032003c
:104c90001e0fe800ae1f7800a4fc0700edfe070021
:104ca0004f2f7800000006002a6e0000873e0000ab
:104cb0006e7500006d620000657200001e00e0006d
:104cc00015003200ae1f78009e1f780016f807000e
:104cd000caff07002e00e00004003a0062075700f8
:104ce0004f2f78004f2f78000b003700ae1f780051
:104cf000c9fe070002f80700a7fd07004f2f780044
:104d000009fa07004f2f78004f2f780087fc070023
:104d1000d0fe0700e9ff370000000600946b00009a
:104d2000a46b0000b46b0000566e0000876e00009c
:104d3000756d000062650000723f00003e0f780054
:104d4000dd040700dc040700cbf9070049ff07007a
:104d5000c3ff0700ae1f7800affe0700e8f70700ab
:104d6000ae1f7800bef90700eff707003002200001
:104d7000002f7800fef907003e0f78003000200079
:104d8000002f780047fd07002e00e00008003200e9
:104d90001e0fd000e0e82600002f7800dcf90700a5
:104da0005af9070061fc0700aafe0700010037005e
:104db00062075700c1ff07004f2f780096fe0700db
:104dc000bbf707003e0f78001e8fe90071fa07005d
:104dd0002e00e00005003a004f2f780066075700cc
:104de00064075700b40407001600370011fc0700e1
:104df0004f2f78002e00e0000100320017fa070064
:104e00000cfc07002e00e0000b003200c6f7070084
:104e1000e0022000002f7800d5f907002e00e00006
:104e2000efff3a0094f907006207570020002000c6
:104e3000002f780003003700f1fb070073fd070027
:104e40003afc070000000600966e00008374000024
:104e5000692300005efe0700a9f70700500020004c
:104e6000002f7800aaf90700941604000000000043
:104e7000266f0000837400006962000005000700cf
:104e800080160400000000003a6f000083740000e8
:104e900069750000ddfa0700eeff0000466f0000b4
:104ea000833e0000696e0000d8fa0700feff000094
:104eb000506f000087270000736f000075720000bc
:104ec00063650000d1fa0700faff00005a6f000086
:104ed000836900006e3f000093f707000002200086
:104ee000002f7800da1a040000000000686f00004c
:104ef000896900006e740000657200007072000025
:104f000065740000efff0700b3fb07006a040700a9
:104f1000e5ff070066f707000e0307007cfe0700a9
:104f20003e0f780080f707002e00e000630032009b
:104f300023ff07001e00e000490032001e0fe800ba
:104f40000b03070004fa0700a0f907002e00e00099
:104f5000270032003e0f7800e5fe070072f70700d9
:104f600000012000002f780092f907002e00e000d9
:104f70000a003200fe0207005dfc07000c4300003f
:104f80004f4d0000504900004c450000204f0000ec
:104f90004e4c0000590000000d0107003e0f780044
:104fa000a0352700002f780099fc07002e00e000b4
:104fb0004220af00db0ea900dacea9003e0f780038
:104fc000c0c32600002f780091fc07002e00e000ef
:104fd0004220af00dacea800c5f80700daceae0056
:104fe000cdff3700da8ea900daaea900caff37007c
:104ff000db0ea900da8ea9003e0f7800c03a260029
:10500000002f780082fc07002e00e0000200320032
:10501000da8ea800100037003e0f7800a016260098
:10502000002f78007afc07002e00e000020032001a
:10503000daaea80001003700daaea9003e0f780012
:10504000abfe0700a4ff07002e00e00002003200c4
:10505000e5010700b0ff370073f60700aeff370029
:10506000db0ea900da8ea900daaea90062075700ac
:1050700032ff07001e00e0000b003200bc020700f8
:105080002e00e000060032002e10a60002003700bd
:10509000ebf8070090f407008ff407009eff37003d
:1050a000620757009cff37000e87e90071fe07007a
:1050b00002fc070000040700bd000700620757005c
:1050c00000000600786f0000837300006862000033
:1050d000b70207000af707003e0f780012f7070033
:1050e000e5f8070039f90700d5f807006c16040049
:1050f0000000000064700000896900006d6d000010
:10510000656400006961000074650000000420000f
:10511000002f780068280400000000007c70000068
:10512000876900006e6c0000696e00006564000015
:1051300000022000002f7800682804000000000012
:1051400090700000832e000073740000c0032000e4
:10515000002f78009bf70700df03070099f707008f
:10516000c0022000002f780096f70700ef03070029
:10517000d2fb0700e0032000002f780091f7070022
:105180003ffb0700642e04000000000076f80700d3
:10519000007c000074f807000080000072f807002f
:1051a0000084000070f807000088000000802500df
:1051b000002f780038fe0700f4ff070085f607008f
:1051c00035fe0700f3ff070082f6070032fe0700f6
:1051d000f2ff07007ff60700c9f60700f1ff07009e
:1051e0007cf63700a270000083640000703e00006f
:1051f0008d1f78006dee2000e4ff070040002000c6
:10520000002f7800ae1f780032f8070066f607001e
:1052100090f90700a0f9070006000700cf1fe9007a
:10522000f9ff3a004f007800cf067800141a040006
:105230000000000000402000002f7800b4f8370084
:10524000f4700000833e00006470000060ee2000f7
:10525000002f78008d1f7800ae067800cbff070086
:1052600040002000002f7800ae1f780019f80700da
:105270004df607006bf90700e5fb07002e00e00084
:1052800003003a0067f9070075f8070054f60700b5
:10529000e8ff070080f90700cf1fe900f3ff3a009d
:1052a0004f007800cf067800620757000000060024
:1052b00083730000703f000045f8070041020700bb
:1052c0008ff60700edfe0700c1fb070088fb070013
:1052d00003530000503f00003d000700000006009f
:1052e00022710000847100007569000074000000e4
:1052f00042f80700d70007004dfa0700d4f5070071
:10530000bbff0700ecff0700d2fa0700dbfe070037
:105310003e0f7800cffe0700a0002000002f78008d
:1053200093f8070009fb0700d5fa0700f5fe070010
:105330000f0207002e00e000f2ff3a00c3ff070053
:105340006bfb0700032000006f6b00005bfb070096
:1053500007000700e9ff3700000006007271000037
:1053600086700000726f00006d7000007400000015
:10537000bff90700780f0000b071000085610000e0
:10538000626f0000727400000e0207005cf60700f6
:105390000af807007829040000000000be71000030
:1053a000873f0000616200006f720000743f0000e0
:1053b0004ffb0700013f000005003700d0710000df
:1053c000863f0000616200006f7200007400000000
:1053d00029f807002e00e00003003a00a8fa0700b1
:1053e00036fb0700e8ff07006407570000000600cf
:1053f000e0710000d6610000626f0000727400006e
:105400002200000049fb0700cdf70700e87100000b
:1054100000000600fa71000081270000cd0107009e
:105420003bfd0700e6fd0700d8290400000000004e
:105430000c720000846300006861000072000000cc
:10544000c401070015fd07000e87e900941604004b
:10545000000000001a720000c12800009002200025
:10546000002f78000dfd070064075700dacea90071
:105470000000060085690000686500007265000094
:1054800060778000002f7800000006002c7200007a
:10549000d65b000063680000617200005d000000e0
:1054a000e7ff07006c1104000000000048720000d4
:1054b00086630000726500006174000065000000f2
:1054c000a401070012fd07003e0f7800bcfd070095
:1054d000cefb0700a0f8070005fb07000f41000006
:1054e0004c52000045410000445900002044000097
:1054f00045460000494e000045440000b4ff070047
:105500003e0f780008f6070088fa07000001200027
:10551000002f78002efb0700a5ff0700a40107005d
:10552000f7f5070038f5070052fd0700d4ff070024
:105530003e0f78009e010700ddf5070044fd0700df
:10554000cfff0700f8f5070000082000002f7800c3
:10555000dffe07001e0fe800f3f90700eb0107006c
:1055600077f70700b4610000e5f90700c7f9070005
:10557000b07b80004000b10001003a001e8fe800bf
:10558000041504000000000058720000d8700000ec
:105590006f730000747000006f6e00006500000003
:1055a0006c010700dafc070085fd07003e0f78005c
:1055b0007fff070077f807002e00e00004003200ac
:1055c0005ff70700a0610000041504000000000060
:1055d000141504000000000087280000646f00001c
:1055e000657300003e2900004f0078004f007800ee
:1055f00001802400012f40006d010700c0f5070065
:105600002efd07009eff0700ae1f780091f90700ee
:10561000a7f5070004f507004f2f78008df9070064
:10562000a3f5070000000600c6720000d564000064
:105630006f650000733e000041f70700f472000040
:105640003ff70700cc610000000006001673000061
:10565000c15b00007a2fef000000060028730000f5
:10566000815d00007aafef0000000600307300009b
:10567000813a000092ff0700faff0700c0ff2f00e9
:10568000002f7800862e0400000000003873000010
:10569000873a00006e6f00006e6100006d650000cb
:1056a00077ff0700322b0400000000004873000061
:1056b000d13b0000db0eab001b003a0070ff07007f
:1056c0001e8fe9003e0f7800aef407007000200046
:1056d000002f7800cefa07002e00e0001100320003
:1056e0001e0fd00066ff070089f707000080240026
:1056f000002f78009ef7070040002000002f780060
:105700005df7070098f40700002feb00002feb0077
:105710005bff070094f4070072f907007b010700a4
:105720000300370064075700db0ea90031f40700bf
:105730002a2b04000000000058730000d23b000038
:105740006900000040892500002f78007b000700d9
:105750002a2b0400000000009e730000d35b0000b1
:10576000275d00002dff07006c1104000000000001
:10577000842c00003f3000003d000000daaeab009a
:1057800003003a00203d2700002f78000300370077
:105790007f000700603d2700002f7800daaea900e7
:1057a000110037002e00e000000006001e00e0009f
:1057b00000000600ae730000d66900006e6c0000a9
:1057c000696e000065000000da8ea900daaea9005b
:1057d00012ff0700f42b040000000000dc7300003f
:1057e000836900006e2c00003e0f780065f407000e
:1057f0003e0f780060002000002f78007efa07003e
:105800002e00e0000300320064f407001e8fe80061
:10581000f5ff37006607570000000600f073000030
:10582000837500006e2c0000cff607000700000013
:1058300010740000827a00002c000000caf60700f5
:10584000020000001a740000836e0000632c000048
:10585000c5f607000900000024740000846e0000f3
:105860006f7400002c00000080002000002f7800e2
:10587000f21a0400000000002e740000836900008a
:10588000662c0000f8ff0700fdfe0700ecf607009d
:105890000902070022140400000000003e7400000a
:1058a00085740000686500006e2c0000db0ea80007
:1058b000f3fe0700eaf607002df707001e8fe90048
:1058c0001e8fd100def607009e1f78002df4070022
:1058d0002e0f78004f2f7800b41404000000000051
:1058e00050740000856500006c730000652c00009a
:1058f000e3fe0700ccff0700ef010700d1f307002c
:10590000cff60700562c040000000000727400005f
:105910008662000065670000696e00002c000000d0
:10592000402a040000000000887400008661000026
:1059300067610000696e00002c000000d0fe0700c7
:105940000bf707001e8fe900b7ff0700bcf6070042
:105950002214040000000000967400008675000008
:105960006e740000696c00002c000000db0ea800c3
:10597000bdff0700b2f60700c1fe0700fcf60700f6
:105980001e8fe900221404000000000081200000a6
:10599000e0ff2f00002f7800862e0400000000009a
:1059a000ae740000d269000066000000da8eaf001d
:1059b000f7ff070071ff0700a0ff0700da8eae00b7
:1059c000a9ff0700da8ea900422c040000000000a5
:1059d000d2740000d4740000686500006e000000fe
:1059e000562c040000000000ea740000d46500009a
:1059f0006c73000065000000782c040000000000bb
:105a0000f6740000d562000065670000696e000052
:105a1000402a04000000000002750000d575000057
:105a20006e740000696c0000da8eaf00d8ff0700ca
:105a300052ff070081ff0700da8eae008aff0700e1
:105a4000da8ea900b62c0400000000000e750000dc
:105a5000d561000067610000696e00009e2c0400a3
:105a60000000000028750000d5770000686900007c
:105a70006c650000cdff0700201a04000000000044
:105a800034750000d672000065700000656100008a
:105a900074000000f1ff0700f02c0400000000007b
:105aa00042750000d36600006f72000000252600da
:105ab000002f78004cff070071fe07005aff070017
:105ac0007d0107005ff307006dfe0700201a040048
:105ad0000000000052750000d46e000065780000e0
:105ae0007400000071ff070060582700002f780045
:105af0003dff070056ff07009cff0700005a2700e4
:105b0000002f7800f42b040000000000cf1fe900f4
:105b1000000006006c750000b56500006e640000b2
:105b2000697400004f007800801feb000000060041
:105b30008c750000b5720000647200006f70000088
:105b40004f007800000006009a750000a262000075
:105b50006c00000000022000002f7800000006000a
:105b6000a675000085730000746100007465000074
:105b7000d07b8000002f780000000600b275000086
:105b800085720000686500007265000080ee2000ec
:105b9000002f78008016040000000000c07500008f
:105ba000866c0000617400006573000074000000e2
:105bb000edf50700ea0e0000d075000082730000ca
:105bc0003000000091f70700e0ff0000de750000e4
:105bd00082720000300000008cf70700e2ff000036
:105be000e8750000a5740000696300006b73000095
